{
  "_format": "hh-sol-artifact-1",
  "contractName": "PermittedMethodManagementContract",
  "sourceName": "contracts/PermittedMethodManagementContratc.sol",
  "abi": [
    {
      "inputs": [
        {
          "internalType": "string",
          "name": "name",
          "type": "string"
        },
        {
          "internalType": "string",
          "name": "chaincode",
          "type": "string"
        },
        {
          "internalType": "string",
          "name": "inputArgs",
          "type": "string"
        },
        {
          "internalType": "string",
          "name": "outputArgs",
          "type": "string"
        }
      ],
      "name": "createPermittedMethod",
      "outputs": [
        {
          "components": [
            {
              "internalType": "uint256",
              "name": "permittedMethodId",
              "type": "uint256"
            },
            {
              "internalType": "string",
              "name": "name",
              "type": "string"
            },
            {
              "internalType": "string",
              "name": "chaincode",
              "type": "string"
            },
            {
              "internalType": "string",
              "name": "inputArgs",
              "type": "string"
            },
            {
              "internalType": "string",
              "name": "outputArgs",
              "type": "string"
            }
          ],
          "internalType": "struct PermittedMethodManagementContract.PermittedMethod",
          "name": "",
          "type": "tuple"
        }
      ],
      "stateMutability": "nonpayable",
      "type": "function"
    },
    {
      "inputs": [
        {
          "internalType": "uint256",
          "name": "permittedMethodId",
          "type": "uint256"
        }
      ],
      "name": "deletePermittedMethod",
      "outputs": [],
      "stateMutability": "nonpayable",
      "type": "function"
    },
    {
      "inputs": [],
      "name": "existingPermittedMethods",
      "outputs": [
        {
          "internalType": "uint16",
          "name": "",
          "type": "uint16"
        }
      ],
      "stateMutability": "view",
      "type": "function"
    },
    {
      "inputs": [],
      "name": "generatePermittedMethodId",
      "outputs": [
        {
          "internalType": "uint256",
          "name": "",
          "type": "uint256"
        }
      ],
      "stateMutability": "view",
      "type": "function"
    },
    {
      "inputs": [],
      "name": "getAllPermittedMethods",
      "outputs": [
        {
          "components": [
            {
              "internalType": "uint256",
              "name": "permittedMethodId",
              "type": "uint256"
            },
            {
              "internalType": "string",
              "name": "name",
              "type": "string"
            },
            {
              "internalType": "string",
              "name": "chaincode",
              "type": "string"
            },
            {
              "internalType": "string",
              "name": "inputArgs",
              "type": "string"
            },
            {
              "internalType": "string",
              "name": "outputArgs",
              "type": "string"
            }
          ],
          "internalType": "struct PermittedMethodManagementContract.PermittedMethod[]",
          "name": "",
          "type": "tuple[]"
        }
      ],
      "stateMutability": "view",
      "type": "function"
    },
    {
      "inputs": [
        {
          "internalType": "uint256",
          "name": "permittedMethodId",
          "type": "uint256"
        }
      ],
      "name": "getPermittedMethod",
      "outputs": [
        {
          "components": [
            {
              "internalType": "uint256",
              "name": "permittedMethodId",
              "type": "uint256"
            },
            {
              "internalType": "string",
              "name": "name",
              "type": "string"
            },
            {
              "internalType": "string",
              "name": "chaincode",
              "type": "string"
            },
            {
              "internalType": "string",
              "name": "inputArgs",
              "type": "string"
            },
            {
              "internalType": "string",
              "name": "outputArgs",
              "type": "string"
            }
          ],
          "internalType": "struct PermittedMethodManagementContract.PermittedMethod",
          "name": "",
          "type": "tuple"
        }
      ],
      "stateMutability": "view",
      "type": "function"
    },
    {
      "inputs": [
        {
          "internalType": "uint256",
          "name": "id",
          "type": "uint256"
        }
      ],
      "name": "getPermittedMethodById",
      "outputs": [
        {
          "components": [
            {
              "internalType": "uint256",
              "name": "permittedMethodId",
              "type": "uint256"
            },
            {
              "internalType": "string",
              "name": "name",
              "type": "string"
            },
            {
              "internalType": "string",
              "name": "chaincode",
              "type": "string"
            },
            {
              "internalType": "string",
              "name": "inputArgs",
              "type": "string"
            },
            {
              "internalType": "string",
              "name": "outputArgs",
              "type": "string"
            }
          ],
          "internalType": "struct PermittedMethodManagementContract.PermittedMethod",
          "name": "",
          "type": "tuple"
        }
      ],
      "stateMutability": "view",
      "type": "function"
    },
    {
      "inputs": [],
      "name": "getPermittedMethodsNumber",
      "outputs": [
        {
          "internalType": "uint256",
          "name": "",
          "type": "uint256"
        }
      ],
      "stateMutability": "view",
      "type": "function"
    },
    {
      "inputs": [
        {
          "internalType": "uint256",
          "name": "accessibleNetworkId",
          "type": "uint256"
        }
      ],
      "name": "isPermittedMethodExist",
      "outputs": [
        {
          "internalType": "bool",
          "name": "",
          "type": "bool"
        }
      ],
      "stateMutability": "view",
      "type": "function"
    },
    {
      "inputs": [
        {
          "internalType": "uint256",
          "name": "",
          "type": "uint256"
        }
      ],
      "name": "permittedMethods",
      "outputs": [
        {
          "internalType": "uint256",
          "name": "permittedMethodId",
          "type": "uint256"
        },
        {
          "internalType": "string",
          "name": "name",
          "type": "string"
        },
        {
          "internalType": "string",
          "name": "chaincode",
          "type": "string"
        },
        {
          "internalType": "string",
          "name": "inputArgs",
          "type": "string"
        },
        {
          "internalType": "string",
          "name": "outputArgs",
          "type": "string"
        }
      ],
      "stateMutability": "view",
      "type": "function"
    },
    {
      "inputs": [
        {
          "internalType": "uint256",
          "name": "",
          "type": "uint256"
        }
      ],
      "name": "permittedMethodsIndexs",
      "outputs": [
        {
          "internalType": "uint256",
          "name": "",
          "type": "uint256"
        }
      ],
      "stateMutability": "view",
      "type": "function"
    },
    {
      "inputs": [
        {
          "internalType": "uint256",
          "name": "permittedMethodId",
          "type": "uint256"
        },
        {
          "internalType": "string",
          "name": "name",
          "type": "string"
        },
        {
          "internalType": "string",
          "name": "chaincode",
          "type": "string"
        },
        {
          "internalType": "string",
          "name": "inputArgs",
          "type": "string"
        },
        {
          "internalType": "string",
          "name": "outputArgs",
          "type": "string"
        }
      ],
      "name": "updatePermittedMethod",
      "outputs": [
        {
          "components": [
            {
              "internalType": "uint256",
              "name": "permittedMethodId",
              "type": "uint256"
            },
            {
              "internalType": "string",
              "name": "name",
              "type": "string"
            },
            {
              "internalType": "string",
              "name": "chaincode",
              "type": "string"
            },
            {
              "internalType": "string",
              "name": "inputArgs",
              "type": "string"
            },
            {
              "internalType": "string",
              "name": "outputArgs",
              "type": "string"
            }
          ],
          "internalType": "struct PermittedMethodManagementContract.PermittedMethod",
          "name": "",
          "type": "tuple"
        }
      ],
      "stateMutability": "nonpayable",
      "type": "function"
    }
  ],
  "bytecode": "0x60806040526000600260006101000a81548161ffff021916908361ffff16021790555034801561002e57600080fd5b506120cc8061003e6000396000f3fe608060405234801561001057600080fd5b50600436106100b45760003560e01c8063975c780511610071578063975c7805146101a3578063a06e3fb6146101d3578063cd1d234b14610203578063dfead6f014610221578063f222f2de14610251578063f7295dfa1461026d576100b4565b806308fc64e3146100b9578063355d9ea1146100e95780633641d42d1461011957806377e34bc9146101375780638d2634c814610155578063901ae07e14610185575b600080fd5b6100d360048036038101906100ce9190611514565b6102a1565b6040516100e09190611731565b60405180910390f35b61010360048036038101906100fe919061177f565b6104db565b60405161011091906117c7565b60405180910390f35b61012161050c565b60405161012e91906117f1565b60405180910390f35b61013f610524565b60405161014c9190611959565b60405180910390f35b61016f600480360381019061016a919061197b565b610892565b60405161017c9190611731565b60405180910390f35b61018d610b6e565b60405161019a91906117f1565b60405180910390f35b6101bd60048036038101906101b8919061177f565b610b8a565b6040516101ca9190611731565b60405180910390f35b6101ed60048036038101906101e8919061177f565b610e08565b6040516101fa91906117f1565b60405180910390f35b61020b610e2c565b6040516102189190611a94565b60405180910390f35b61023b6004803603810190610236919061177f565b610e40565b6040516102489190611731565b60405180910390f35b61026b6004803603810190610266919061177f565b6110be565b005b6102876004803603810190610282919061177f565b6111c3565b604051610298959493929190611af9565b60405180910390f35b6102a9611419565b60006102b361050c565b905060006040518060a001604052808381526020018c8c8080601f016020809104026020016040519081016040528093929190818152602001838380828437600081840152601f19601f8201169050808301925050505050505081526020018a8a8080601f016020809104026020016040519081016040528093929190818152602001838380828437600081840152601f19601f82011690508083019250505050505050815260200188888080601f016020809104026020016040519081016040528093929190818152602001838380828437600081840152601f19601f82011690508083019250505050505050815260200186868080601f016020809104026020016040519081016040528093929190818152602001838380828437600081840152601f19601f820116905080830192505050505050508152509050806000808481526020019081526020016000206000820151816000015560208201518160010190816104229190611da3565b5060408201518160020190816104389190611da3565b50606082015181600301908161044e9190611da3565b5060808201518160040190816104649190611da3565b5090505060018290806001815401808255809150506001900390600052602060002001600090919091909150556001600260009054906101000a900461ffff166104ae9190611ea4565b600260006101000a81548161ffff021916908361ffff160217905550809250505098975050505050505050565b60008060008084815260200190815260200160002060000154036105025760009050610507565b600190505b919050565b60006001808054905061051f9190611eda565b905090565b60606000600260009054906101000a900461ffff1661ffff1667ffffffffffffffff81111561055657610555611b68565b5b60405190808252806020026020018201604052801561058f57816020015b61057c611419565b8152602001906001900390816105745790505b5090506000805b600180549050811015610889576000600182815481106105b9576105b8611f0e565b5b90600052602060002001549050600081036105d45750610876565b6000808281526020019081526020016000206040518060a00160405290816000820154815260200160018201805461060b90611bc6565b80601f016020809104026020016040519081016040528092919081815260200182805461063790611bc6565b80156106845780601f1061065957610100808354040283529160200191610684565b820191906000526020600020905b81548152906001019060200180831161066757829003601f168201915b5050505050815260200160028201805461069d90611bc6565b80601f01602080910402602001604051908101604052809291908181526020018280546106c990611bc6565b80156107165780601f106106eb57610100808354040283529160200191610716565b820191906000526020600020905b8154815290600101906020018083116106f957829003601f168201915b5050505050815260200160038201805461072f90611bc6565b80601f016020809104026020016040519081016040528092919081815260200182805461075b90611bc6565b80156107a85780601f1061077d576101008083540402835291602001916107a8565b820191906000526020600020905b81548152906001019060200180831161078b57829003601f168201915b505050505081526020016004820180546107c190611bc6565b80601f01602080910402602001604051908101604052809291908181526020018280546107ed90611bc6565b801561083a5780601f1061080f5761010080835404028352916020019161083a565b820191906000526020600020905b81548152906001019060200180831161081d57829003601f168201915b505050505081525050848461ffff168151811061085a57610859611f0e565b5b60200260200101819052506001836108729190611ea4565b9250505b808061088190611f3d565b915050610596565b50819250505090565b61089a611419565b60008060008c8152602001908152602001600020905083838260040191826108c3929190611f90565b5085858260030191826108d7929190611f90565b5087878260020191826108eb929190611f90565b5089898260010191826108ff929190611f90565b50806040518060a00160405290816000820154815260200160018201805461092690611bc6565b80601f016020809104026020016040519081016040528092919081815260200182805461095290611bc6565b801561099f5780601f106109745761010080835404028352916020019161099f565b820191906000526020600020905b81548152906001019060200180831161098257829003601f168201915b505050505081526020016002820180546109b890611bc6565b80601f01602080910402602001604051908101604052809291908181526020018280546109e490611bc6565b8015610a315780601f10610a0657610100808354040283529160200191610a31565b820191906000526020600020905b815481529060010190602001808311610a1457829003601f168201915b50505050508152602001600382018054610a4a90611bc6565b80601f0160208091040260200160405190810160405280929190818152602001828054610a7690611bc6565b8015610ac35780601f10610a9857610100808354040283529160200191610ac3565b820191906000526020600020905b815481529060010190602001808311610aa657829003601f168201915b50505050508152602001600482018054610adc90611bc6565b80601f0160208091040260200160405190810160405280929190818152602001828054610b0890611bc6565b8015610b555780601f10610b2a57610100808354040283529160200191610b55565b820191906000526020600020905b815481529060010190602001808311610b3857829003601f168201915b5050505050815250509150509998505050505050505050565b6000600260009054906101000a900461ffff1661ffff16905090565b610b92611419565b6000808381526020019081526020016000206040518060a001604052908160008201548152602001600182018054610bc990611bc6565b80601f0160208091040260200160405190810160405280929190818152602001828054610bf590611bc6565b8015610c425780601f10610c1757610100808354040283529160200191610c42565b820191906000526020600020905b815481529060010190602001808311610c2557829003601f168201915b50505050508152602001600282018054610c5b90611bc6565b80601f0160208091040260200160405190810160405280929190818152602001828054610c8790611bc6565b8015610cd45780601f10610ca957610100808354040283529160200191610cd4565b820191906000526020600020905b815481529060010190602001808311610cb757829003601f168201915b50505050508152602001600382018054610ced90611bc6565b80601f0160208091040260200160405190810160405280929190818152602001828054610d1990611bc6565b8015610d665780601f10610d3b57610100808354040283529160200191610d66565b820191906000526020600020905b815481529060010190602001808311610d4957829003601f168201915b50505050508152602001600482018054610d7f90611bc6565b80601f0160208091040260200160405190810160405280929190818152602001828054610dab90611bc6565b8015610df85780601f10610dcd57610100808354040283529160200191610df8565b820191906000526020600020905b815481529060010190602001808311610ddb57829003601f168201915b5050505050815250509050919050565b60018181548110610e1857600080fd5b906000526020600020016000915090505481565b600260009054906101000a900461ffff1681565b610e48611419565b6000808381526020019081526020016000206040518060a001604052908160008201548152602001600182018054610e7f90611bc6565b80601f0160208091040260200160405190810160405280929190818152602001828054610eab90611bc6565b8015610ef85780601f10610ecd57610100808354040283529160200191610ef8565b820191906000526020600020905b815481529060010190602001808311610edb57829003601f168201915b50505050508152602001600282018054610f1190611bc6565b80601f0160208091040260200160405190810160405280929190818152602001828054610f3d90611bc6565b8015610f8a5780601f10610f5f57610100808354040283529160200191610f8a565b820191906000526020600020905b815481529060010190602001808311610f6d57829003601f168201915b50505050508152602001600382018054610fa390611bc6565b80601f0160208091040260200160405190810160405280929190818152602001828054610fcf90611bc6565b801561101c5780601f10610ff15761010080835404028352916020019161101c565b820191906000526020600020905b815481529060010190602001808311610fff57829003601f168201915b5050505050815260200160048201805461103590611bc6565b80601f016020809104026020016040519081016040528092919081815260200182805461106190611bc6565b80156110ae5780601f10611083576101008083540402835291602001916110ae565b820191906000526020600020905b81548152906001019060200180831161109157829003601f168201915b5050505050815250509050919050565b6000808281526020019081526020016000206000808201600090556001820160006110e99190611448565b6002820160006110f99190611448565b6003820160006111099190611448565b6004820160006111199190611448565b505060005b6001805490508110156111865781600182815481106111405761113f611f0e565b5b906000526020600020015403611173576001818154811061116457611163611f0e565b5b90600052602060002001600090555b808061117e90611f3d565b91505061111e565b506001600260009054906101000a900461ffff166111a49190612060565b600260006101000a81548161ffff021916908361ffff16021790555050565b60006020528060005260406000206000915090508060000154908060010180546111ec90611bc6565b80601f016020809104026020016040519081016040528092919081815260200182805461121890611bc6565b80156112655780601f1061123a57610100808354040283529160200191611265565b820191906000526020600020905b81548152906001019060200180831161124857829003601f168201915b50505050509080600201805461127a90611bc6565b80601f01602080910402602001604051908101604052809291908181526020018280546112a690611bc6565b80156112f35780601f106112c8576101008083540402835291602001916112f3565b820191906000526020600020905b8154815290600101906020018083116112d657829003601f168201915b50505050509080600301805461130890611bc6565b80601f016020809104026020016040519081016040528092919081815260200182805461133490611bc6565b80156113815780601f1061135657610100808354040283529160200191611381565b820191906000526020600020905b81548152906001019060200180831161136457829003601f168201915b50505050509080600401805461139690611bc6565b80601f01602080910402602001604051908101604052809291908181526020018280546113c290611bc6565b801561140f5780601f106113e45761010080835404028352916020019161140f565b820191906000526020600020905b8154815290600101906020018083116113f257829003601f168201915b5050505050905085565b6040518060a0016040528060008152602001606081526020016060815260200160608152602001606081525090565b50805461145490611bc6565b6000825580601f106114665750611485565b601f0160209004906000526020600020908101906114849190611488565b5b50565b5b808211156114a1576000816000905550600101611489565b5090565b600080fd5b600080fd5b600080fd5b600080fd5b600080fd5b60008083601f8401126114d4576114d36114af565b5b8235905067ffffffffffffffff8111156114f1576114f06114b4565b5b60208301915083600182028301111561150d5761150c6114b9565b5b9250929050565b6000806000806000806000806080898b031215611534576115336114a5565b5b600089013567ffffffffffffffff811115611552576115516114aa565b5b61155e8b828c016114be565b9850985050602089013567ffffffffffffffff811115611581576115806114aa565b5b61158d8b828c016114be565b9650965050604089013567ffffffffffffffff8111156115b0576115af6114aa565b5b6115bc8b828c016114be565b9450945050606089013567ffffffffffffffff8111156115df576115de6114aa565b5b6115eb8b828c016114be565b92509250509295985092959890939650565b6000819050919050565b611610816115fd565b82525050565b600081519050919050565b600082825260208201905092915050565b60005b83811015611650578082015181840152602081019050611635565b60008484015250505050565b6000601f19601f8301169050919050565b600061167882611616565b6116828185611621565b9350611692818560208601611632565b61169b8161165c565b840191505092915050565b600060a0830160008301516116be6000860182611607565b50602083015184820360208601526116d6828261166d565b915050604083015184820360408601526116f0828261166d565b9150506060830151848203606086015261170a828261166d565b91505060808301518482036080860152611724828261166d565b9150508091505092915050565b6000602082019050818103600083015261174b81846116a6565b905092915050565b61175c816115fd565b811461176757600080fd5b50565b60008135905061177981611753565b92915050565b600060208284031215611795576117946114a5565b5b60006117a38482850161176a565b91505092915050565b60008115159050919050565b6117c1816117ac565b82525050565b60006020820190506117dc60008301846117b8565b92915050565b6117eb816115fd565b82525050565b600060208201905061180660008301846117e2565b92915050565b600081519050919050565b600082825260208201905092915050565b6000819050602082019050919050565b600060a0830160008301516118506000860182611607565b5060208301518482036020860152611868828261166d565b91505060408301518482036040860152611882828261166d565b9150506060830151848203606086015261189c828261166d565b915050608083015184820360808601526118b6828261166d565b9150508091505092915050565b60006118cf8383611838565b905092915050565b6000602082019050919050565b60006118ef8261180c565b6118f98185611817565b93508360208202850161190b85611828565b8060005b85811015611947578484038952815161192885826118c3565b9450611933836118d7565b925060208a0199505060018101905061190f565b50829750879550505050505092915050565b6000602082019050818103600083015261197381846118e4565b905092915050565b600080600080600080600080600060a08a8c03121561199d5761199c6114a5565b5b60006119ab8c828d0161176a565b99505060208a013567ffffffffffffffff8111156119cc576119cb6114aa565b5b6119d88c828d016114be565b985098505060408a013567ffffffffffffffff8111156119fb576119fa6114aa565b5b611a078c828d016114be565b965096505060608a013567ffffffffffffffff811115611a2a57611a296114aa565b5b611a368c828d016114be565b945094505060808a013567ffffffffffffffff811115611a5957611a586114aa565b5b611a658c828d016114be565b92509250509295985092959850929598565b600061ffff82169050919050565b611a8e81611a77565b82525050565b6000602082019050611aa96000830184611a85565b92915050565b600082825260208201905092915050565b6000611acb82611616565b611ad58185611aaf565b9350611ae5818560208601611632565b611aee8161165c565b840191505092915050565b600060a082019050611b0e60008301886117e2565b8181036020830152611b208187611ac0565b90508181036040830152611b348186611ac0565b90508181036060830152611b488185611ac0565b90508181036080830152611b5c8184611ac0565b90509695505050505050565b7f4e487b7100000000000000000000000000000000000000000000000000000000600052604160045260246000fd5b7f4e487b7100000000000000000000000000000000000000000000000000000000600052602260045260246000fd5b60006002820490506001821680611bde57607f821691505b602082108103611bf157611bf0611b97565b5b50919050565b60008190508160005260206000209050919050565b60006020601f8301049050919050565b600082821b905092915050565b600060088302611c597fffffffffffffffffffffffffffffffffffffffffffffffffffffffffffffffff82611c1c565b611c638683611c1c565b95508019841693508086168417925050509392505050565b6000819050919050565b6000611ca0611c9b611c96846115fd565b611c7b565b6115fd565b9050919050565b6000819050919050565b611cba83611c85565b611cce611cc682611ca7565b848454611c29565b825550505050565b600090565b611ce3611cd6565b611cee818484611cb1565b505050565b5b81811015611d1257611d07600082611cdb565b600181019050611cf4565b5050565b601f821115611d5757611d2881611bf7565b611d3184611c0c565b81016020851015611d40578190505b611d54611d4c85611c0c565b830182611cf3565b50505b505050565b600082821c905092915050565b6000611d7a60001984600802611d5c565b1980831691505092915050565b6000611d938383611d69565b9150826002028217905092915050565b611dac82611616565b67ffffffffffffffff811115611dc557611dc4611b68565b5b611dcf8254611bc6565b611dda828285611d16565b600060209050601f831160018114611e0d5760008415611dfb578287015190505b611e058582611d87565b865550611e6d565b601f198416611e1b86611bf7565b60005b82811015611e4357848901518255600182019150602085019450602081019050611e1e565b86831015611e605784890151611e5c601f891682611d69565b8355505b6001600288020188555050505b505050505050565b7f4e487b7100000000000000000000000000000000000000000000000000000000600052601160045260246000fd5b6000611eaf82611a77565b9150611eba83611a77565b9250828201905061ffff811115611ed457611ed3611e75565b5b92915050565b6000611ee5826115fd565b9150611ef0836115fd565b9250828201905080821115611f0857611f07611e75565b5b92915050565b7f4e487b7100000000000000000000000000000000000000000000000000000000600052603260045260246000fd5b6000611f48826115fd565b91507fffffffffffffffffffffffffffffffffffffffffffffffffffffffffffffffff8203611f7a57611f79611e75565b5b600182019050919050565b600082905092915050565b611f9a8383611f85565b67ffffffffffffffff811115611fb357611fb2611b68565b5b611fbd8254611bc6565b611fc8828285611d16565b6000601f831160018114611ff75760008415611fe5578287013590505b611fef8582611d87565b865550612057565b601f19841661200586611bf7565b60005b8281101561202d57848901358255600182019150602085019450602081019050612008565b8683101561204a5784890135612046601f891682611d69565b8355505b6001600288020188555050505b50505050505050565b600061206b82611a77565b915061207683611a77565b9250828203905061ffff8111156120905761208f611e75565b5b9291505056fea2646970667358221220a499b793f122a408263b8afb6fc19efbcd3da5e5802188be2001e1601022f25264736f6c63430008130033",
  "linkReferences": {},
  "deployedLinkReferences": {}
}