{
  "_format": "hh-sol-artifact-1",
  "contractName": "PermittedNetworkManagementContract",
  "sourceName": "contracts/PermittedNetworkManagementContract.sol",
  "abi": [
    {
      "inputs": [
        {
          "internalType": "string",
          "name": "networkName",
          "type": "string"
        },
        {
          "internalType": "string",
          "name": "networkIP",
          "type": "string"
        },
        {
          "internalType": "string",
          "name": "networkAddress",
          "type": "string"
        },
        {
          "internalType": "string",
          "name": "companyName",
          "type": "string"
        }
      ],
      "name": "createPermittedNetwork",
      "outputs": [
        {
          "components": [
            {
              "internalType": "string",
              "name": "networkName",
              "type": "string"
            },
            {
              "internalType": "string",
              "name": "networkIP",
              "type": "string"
            },
            {
              "internalType": "string",
              "name": "networkAddress",
              "type": "string"
            },
            {
              "internalType": "string",
              "name": "companyName",
              "type": "string"
            },
            {
              "internalType": "uint256",
              "name": "permittedNetworkId",
              "type": "uint256"
            }
          ],
          "internalType": "struct PermittedNetworkManagementContract.PermittedNetwork",
          "name": "",
          "type": "tuple"
        }
      ],
      "stateMutability": "nonpayable",
      "type": "function"
    },
    {
      "inputs": [
        {
          "internalType": "uint256",
          "name": "permittedNetworkId",
          "type": "uint256"
        }
      ],
      "name": "deletePermittedNetwork",
      "outputs": [],
      "stateMutability": "nonpayable",
      "type": "function"
    },
    {
      "inputs": [],
      "name": "existingAccessibleNetworks",
      "outputs": [
        {
          "internalType": "uint16",
          "name": "",
          "type": "uint16"
        }
      ],
      "stateMutability": "view",
      "type": "function"
    },
    {
      "inputs": [],
      "name": "generatePermittedNetworkId",
      "outputs": [
        {
          "internalType": "uint256",
          "name": "",
          "type": "uint256"
        }
      ],
      "stateMutability": "view",
      "type": "function"
    },
    {
      "inputs": [],
      "name": "getAllPermittedNetworks",
      "outputs": [
        {
          "components": [
            {
              "internalType": "string",
              "name": "networkName",
              "type": "string"
            },
            {
              "internalType": "string",
              "name": "networkIP",
              "type": "string"
            },
            {
              "internalType": "string",
              "name": "networkAddress",
              "type": "string"
            },
            {
              "internalType": "string",
              "name": "companyName",
              "type": "string"
            },
            {
              "internalType": "uint256",
              "name": "permittedNetworkId",
              "type": "uint256"
            }
          ],
          "internalType": "struct PermittedNetworkManagementContract.PermittedNetwork[]",
          "name": "",
          "type": "tuple[]"
        }
      ],
      "stateMutability": "view",
      "type": "function"
    },
    {
      "inputs": [],
      "name": "getAlltheKeysInMapping",
      "outputs": [
        {
          "internalType": "uint256[]",
          "name": "",
          "type": "uint256[]"
        }
      ],
      "stateMutability": "view",
      "type": "function"
    },
    {
      "inputs": [
        {
          "internalType": "uint256",
          "name": "permittedNetworkId",
          "type": "uint256"
        }
      ],
      "name": "getPermittedNetwork",
      "outputs": [
        {
          "components": [
            {
              "internalType": "string",
              "name": "networkName",
              "type": "string"
            },
            {
              "internalType": "string",
              "name": "networkIP",
              "type": "string"
            },
            {
              "internalType": "string",
              "name": "networkAddress",
              "type": "string"
            },
            {
              "internalType": "string",
              "name": "companyName",
              "type": "string"
            },
            {
              "internalType": "uint256",
              "name": "permittedNetworkId",
              "type": "uint256"
            }
          ],
          "internalType": "struct PermittedNetworkManagementContract.PermittedNetwork",
          "name": "",
          "type": "tuple"
        }
      ],
      "stateMutability": "view",
      "type": "function"
    },
    {
      "inputs": [],
      "name": "getPermittedNetworkIndexArray",
      "outputs": [
        {
          "internalType": "uint256[]",
          "name": "",
          "type": "uint256[]"
        }
      ],
      "stateMutability": "view",
      "type": "function"
    },
    {
      "inputs": [],
      "name": "getPermittedNetworksNumber",
      "outputs": [
        {
          "internalType": "uint256",
          "name": "",
          "type": "uint256"
        }
      ],
      "stateMutability": "view",
      "type": "function"
    },
    {
      "inputs": [
        {
          "internalType": "uint256",
          "name": "permittedNetworkId",
          "type": "uint256"
        }
      ],
      "name": "permittedNetworkExists",
      "outputs": [
        {
          "internalType": "bool",
          "name": "",
          "type": "bool"
        }
      ],
      "stateMutability": "view",
      "type": "function"
    },
    {
      "inputs": [
        {
          "internalType": "uint256",
          "name": "",
          "type": "uint256"
        }
      ],
      "name": "permittedNetworkIndexs",
      "outputs": [
        {
          "internalType": "uint256",
          "name": "",
          "type": "uint256"
        }
      ],
      "stateMutability": "view",
      "type": "function"
    },
    {
      "inputs": [
        {
          "internalType": "uint256",
          "name": "",
          "type": "uint256"
        }
      ],
      "name": "permittedNetworks",
      "outputs": [
        {
          "internalType": "string",
          "name": "networkName",
          "type": "string"
        },
        {
          "internalType": "string",
          "name": "networkIP",
          "type": "string"
        },
        {
          "internalType": "string",
          "name": "networkAddress",
          "type": "string"
        },
        {
          "internalType": "string",
          "name": "companyName",
          "type": "string"
        },
        {
          "internalType": "uint256",
          "name": "permittedNetworkId",
          "type": "uint256"
        }
      ],
      "stateMutability": "view",
      "type": "function"
    },
    {
      "inputs": [
        {
          "internalType": "uint256",
          "name": "permittedNetworkId",
          "type": "uint256"
        },
        {
          "internalType": "string",
          "name": "networkName",
          "type": "string"
        },
        {
          "internalType": "string",
          "name": "networkIP",
          "type": "string"
        },
        {
          "internalType": "string",
          "name": "networkAddress",
          "type": "string"
        },
        {
          "internalType": "string",
          "name": "companyName",
          "type": "string"
        }
      ],
      "name": "updatePermittedNetwork",
      "outputs": [
        {
          "components": [
            {
              "internalType": "string",
              "name": "networkName",
              "type": "string"
            },
            {
              "internalType": "string",
              "name": "networkIP",
              "type": "string"
            },
            {
              "internalType": "string",
              "name": "networkAddress",
              "type": "string"
            },
            {
              "internalType": "string",
              "name": "companyName",
              "type": "string"
            },
            {
              "internalType": "uint256",
              "name": "permittedNetworkId",
              "type": "uint256"
            }
          ],
          "internalType": "struct PermittedNetworkManagementContract.PermittedNetwork",
          "name": "",
          "type": "tuple"
        }
      ],
      "stateMutability": "nonpayable",
      "type": "function"
    }
  ],
  "bytecode": "0x60806040526000600260006101000a81548161ffff021916908361ffff16021790555034801561002e57600080fd5b50611faa8061003e6000396000f3fe608060405234801561001057600080fd5b50600436106100cf5760003560e01c80638eb60baa1161008c578063d320f92611610066578063d320f92614610240578063d4d7520114610270578063e349bd211461028e578063fa63b2b7146102ac576100cf565b80638eb60baa146101c2578063b1f84722146101f2578063cdd6b7a114610210576100cf565b80632ef1c75d146100d457806335fb246b146101085780633f7408a51461012657806351fa5ea5146101565780638361868a1461017457806383685c9814610192575b600080fd5b6100ee60048036038101906100e99190611328565b6102c8565b6040516100ff9594939291906113f4565b60405180910390f35b61011061051e565b60405161011d9190611480565b60405180910390f35b610140600480360381019061013b9190611500565b610532565b60405161014d91906116cd565b60405180910390f35b61015e61076c565b60405161016b919061179e565b60405180910390f35b61017c61083e565b60405161018991906117c0565b60405180910390f35b6101ac60048036038101906101a79190611328565b610856565b6040516101b991906117c0565b60405180910390f35b6101dc60048036038101906101d79190611328565b61087a565b6040516101e991906117f6565b60405180910390f35b6101fa61089c565b604051610207919061179e565b60405180910390f35b61022a60048036038101906102259190611811565b6108f4565b60405161023791906116cd565b60405180910390f35b61025a60048036038101906102559190611328565b610bd0565b60405161026791906116cd565b60405180910390f35b610278610e4e565b6040516102859190611a5a565b60405180910390f35b610296611183565b6040516102a391906117c0565b60405180910390f35b6102c660048036038101906102c19190611328565b611190565b005b60006020528060005260406000206000915090508060000180546102eb90611aab565b80601f016020809104026020016040519081016040528092919081815260200182805461031790611aab565b80156103645780601f1061033957610100808354040283529160200191610364565b820191906000526020600020905b81548152906001019060200180831161034757829003601f168201915b50505050509080600101805461037990611aab565b80601f01602080910402602001604051908101604052809291908181526020018280546103a590611aab565b80156103f25780601f106103c7576101008083540402835291602001916103f2565b820191906000526020600020905b8154815290600101906020018083116103d557829003601f168201915b50505050509080600201805461040790611aab565b80601f016020809104026020016040519081016040528092919081815260200182805461043390611aab565b80156104805780601f1061045557610100808354040283529160200191610480565b820191906000526020600020905b81548152906001019060200180831161046357829003601f168201915b50505050509080600301805461049590611aab565b80601f01602080910402602001604051908101604052809291908181526020018280546104c190611aab565b801561050e5780601f106104e35761010080835404028352916020019161050e565b820191906000526020600020905b8154815290600101906020018083116104f157829003601f168201915b5050505050908060040154905085565b600260009054906101000a900461ffff1681565b61053a61125c565b600061054461083e565b905060006040518060a001604052808c8c8080601f016020809104026020016040519081016040528093929190818152602001838380828437600081840152601f19601f8201169050808301925050505050505081526020018a8a8080601f016020809104026020016040519081016040528093929190818152602001838380828437600081840152601f19601f82011690508083019250505050505050815260200188888080601f016020809104026020016040519081016040528093929190818152602001838380828437600081840152601f19601f82011690508083019250505050505050815260200186868080601f016020809104026020016040519081016040528093929190818152602001838380828437600081840152601f19601f8201169050808301925050505050505081526020018381525090508060008084815260200190815260200160002060008201518160000190816106a99190611cb7565b5060208201518160010190816106bf9190611cb7565b5060408201518160020190816106d59190611cb7565b5060608201518160030190816106eb9190611cb7565b506080820151816004015590505060018290806001815401808255809150506001900390600052602060002001600090919091909150556001600260009054906101000a900461ffff1661073f9190611db8565b600260006101000a81548161ffff021916908361ffff160217905550809250505098975050505050505050565b6060600060018054905067ffffffffffffffff81111561078f5761078e611adc565b5b6040519080825280602002602001820160405280156107bd5781602001602082028036833780820191505090505b50905060005b60018054905081101561083657600080600183815481106107e7576107e6611dee565b5b906000526020600020015481526020019081526020016000206004015482828151811061081757610816611dee565b5b602002602001018181525050808061082e90611e1d565b9150506107c3565b508091505090565b6000600180805490506108519190611e65565b905090565b6001818154811061086657600080fd5b906000526020600020016000915090505481565b6000806000808481526020019081526020016000206004015414159050919050565b606060018054806020026020016040519081016040528092919081815260200182805480156108ea57602002820191906000526020600020905b8154815260200190600101908083116108d6575b5050505050905090565b6108fc61125c565b60008060008c815260200190815260200160002090508989826000019182610925929190611ea4565b508787826001019182610939929190611ea4565b50858582600201918261094d929190611ea4565b508383826003019182610961929190611ea4565b50806040518060a001604052908160008201805461097e90611aab565b80601f01602080910402602001604051908101604052809291908181526020018280546109aa90611aab565b80156109f75780601f106109cc576101008083540402835291602001916109f7565b820191906000526020600020905b8154815290600101906020018083116109da57829003601f168201915b50505050508152602001600182018054610a1090611aab565b80601f0160208091040260200160405190810160405280929190818152602001828054610a3c90611aab565b8015610a895780601f10610a5e57610100808354040283529160200191610a89565b820191906000526020600020905b815481529060010190602001808311610a6c57829003601f168201915b50505050508152602001600282018054610aa290611aab565b80601f0160208091040260200160405190810160405280929190818152602001828054610ace90611aab565b8015610b1b5780601f10610af057610100808354040283529160200191610b1b565b820191906000526020600020905b815481529060010190602001808311610afe57829003601f168201915b50505050508152602001600382018054610b3490611aab565b80601f0160208091040260200160405190810160405280929190818152602001828054610b6090611aab565b8015610bad5780601f10610b8257610100808354040283529160200191610bad565b820191906000526020600020905b815481529060010190602001808311610b9057829003601f168201915b505050505081526020016004820154815250509150509998505050505050505050565b610bd861125c565b6000808381526020019081526020016000206040518060a0016040529081600082018054610c0590611aab565b80601f0160208091040260200160405190810160405280929190818152602001828054610c3190611aab565b8015610c7e5780601f10610c5357610100808354040283529160200191610c7e565b820191906000526020600020905b815481529060010190602001808311610c6157829003601f168201915b50505050508152602001600182018054610c9790611aab565b80601f0160208091040260200160405190810160405280929190818152602001828054610cc390611aab565b8015610d105780601f10610ce557610100808354040283529160200191610d10565b820191906000526020600020905b815481529060010190602001808311610cf357829003601f168201915b50505050508152602001600282018054610d2990611aab565b80601f0160208091040260200160405190810160405280929190818152602001828054610d5590611aab565b8015610da25780601f10610d7757610100808354040283529160200191610da2565b820191906000526020600020905b815481529060010190602001808311610d8557829003601f168201915b50505050508152602001600382018054610dbb90611aab565b80601f0160208091040260200160405190810160405280929190818152602001828054610de790611aab565b8015610e345780601f10610e0957610100808354040283529160200191610e34565b820191906000526020600020905b815481529060010190602001808311610e1757829003601f168201915b505050505081526020016004820154815250509050919050565b6060600060018054905067ffffffffffffffff811115610e7157610e70611adc565b5b604051908082528060200260200182016040528015610eaa57816020015b610e9761125c565b815260200190600190039081610e8f5790505b50905060005b60018054905081101561117b5760008060018381548110610ed457610ed3611dee565b5b906000526020600020015481526020019081526020016000206040518060a0016040529081600082018054610f0890611aab565b80601f0160208091040260200160405190810160405280929190818152602001828054610f3490611aab565b8015610f815780601f10610f5657610100808354040283529160200191610f81565b820191906000526020600020905b815481529060010190602001808311610f6457829003601f168201915b50505050508152602001600182018054610f9a90611aab565b80601f0160208091040260200160405190810160405280929190818152602001828054610fc690611aab565b80156110135780601f10610fe857610100808354040283529160200191611013565b820191906000526020600020905b815481529060010190602001808311610ff657829003601f168201915b5050505050815260200160028201805461102c90611aab565b80601f016020809104026020016040519081016040528092919081815260200182805461105890611aab565b80156110a55780601f1061107a576101008083540402835291602001916110a5565b820191906000526020600020905b81548152906001019060200180831161108857829003601f168201915b505050505081526020016003820180546110be90611aab565b80601f01602080910402602001604051908101604052809291908181526020018280546110ea90611aab565b80156111375780601f1061110c57610100808354040283529160200191611137565b820191906000526020600020905b81548152906001019060200180831161111a57829003601f168201915b5050505050815260200160048201548152505082828151811061115d5761115c611dee565b5b6020026020010181905250808061117390611e1d565b915050610eb0565b508091505090565b6000600180549050905090565b600080828152602001908152602001600020600080820160006111b3919061128b565b6001820160006111c3919061128b565b6002820160006111d3919061128b565b6003820160006111e3919061128b565b6004820160009055505060005b60018054905081101561125857816001828154811061121257611211611dee565b5b906000526020600020015403611245576001818154811061123657611235611dee565b5b90600052602060002001600090555b808061125090611e1d565b9150506111f0565b5050565b6040518060a0016040528060608152602001606081526020016060815260200160608152602001600081525090565b50805461129790611aab565b6000825580601f106112a957506112c8565b601f0160209004906000526020600020908101906112c791906112cb565b5b50565b5b808211156112e45760008160009055506001016112cc565b5090565b600080fd5b600080fd5b6000819050919050565b611305816112f2565b811461131057600080fd5b50565b600081359050611322816112fc565b92915050565b60006020828403121561133e5761133d6112e8565b5b600061134c84828501611313565b91505092915050565b600081519050919050565b600082825260208201905092915050565b60005b8381101561138f578082015181840152602081019050611374565b60008484015250505050565b6000601f19601f8301169050919050565b60006113b782611355565b6113c18185611360565b93506113d1818560208601611371565b6113da8161139b565b840191505092915050565b6113ee816112f2565b82525050565b600060a082019050818103600083015261140e81886113ac565b9050818103602083015261142281876113ac565b9050818103604083015261143681866113ac565b9050818103606083015261144a81856113ac565b905061145960808301846113e5565b9695505050505050565b600061ffff82169050919050565b61147a81611463565b82525050565b60006020820190506114956000830184611471565b92915050565b600080fd5b600080fd5b600080fd5b60008083601f8401126114c0576114bf61149b565b5b8235905067ffffffffffffffff8111156114dd576114dc6114a0565b5b6020830191508360018202830111156114f9576114f86114a5565b5b9250929050565b6000806000806000806000806080898b0312156115205761151f6112e8565b5b600089013567ffffffffffffffff81111561153e5761153d6112ed565b5b61154a8b828c016114aa565b9850985050602089013567ffffffffffffffff81111561156d5761156c6112ed565b5b6115798b828c016114aa565b9650965050604089013567ffffffffffffffff81111561159c5761159b6112ed565b5b6115a88b828c016114aa565b9450945050606089013567ffffffffffffffff8111156115cb576115ca6112ed565b5b6115d78b828c016114aa565b92509250509295985092959890939650565b600082825260208201905092915050565b600061160582611355565b61160f81856115e9565b935061161f818560208601611371565b6116288161139b565b840191505092915050565b61163c816112f2565b82525050565b600060a083016000830151848203600086015261165f82826115fa565b9150506020830151848203602086015261167982826115fa565b9150506040830151848203604086015261169382826115fa565b915050606083015184820360608601526116ad82826115fa565b91505060808301516116c26080860182611633565b508091505092915050565b600060208201905081810360008301526116e78184611642565b905092915050565b600081519050919050565b600082825260208201905092915050565b6000819050602082019050919050565b60006117278383611633565b60208301905092915050565b6000602082019050919050565b600061174b826116ef565b61175581856116fa565b93506117608361170b565b8060005b83811015611791578151611778888261171b565b975061178383611733565b925050600181019050611764565b5085935050505092915050565b600060208201905081810360008301526117b88184611740565b905092915050565b60006020820190506117d560008301846113e5565b92915050565b60008115159050919050565b6117f0816117db565b82525050565b600060208201905061180b60008301846117e7565b92915050565b600080600080600080600080600060a08a8c031215611833576118326112e8565b5b60006118418c828d01611313565b99505060208a013567ffffffffffffffff811115611862576118616112ed565b5b61186e8c828d016114aa565b985098505060408a013567ffffffffffffffff811115611891576118906112ed565b5b61189d8c828d016114aa565b965096505060608a013567ffffffffffffffff8111156118c0576118bf6112ed565b5b6118cc8c828d016114aa565b945094505060808a013567ffffffffffffffff8111156118ef576118ee6112ed565b5b6118fb8c828d016114aa565b92509250509295985092959850929598565b600081519050919050565b600082825260208201905092915050565b6000819050602082019050919050565b600060a083016000830151848203600086015261195682826115fa565b9150506020830151848203602086015261197082826115fa565b9150506040830151848203604086015261198a82826115fa565b915050606083015184820360608601526119a482826115fa565b91505060808301516119b96080860182611633565b508091505092915050565b60006119d08383611939565b905092915050565b6000602082019050919050565b60006119f08261190d565b6119fa8185611918565b935083602082028501611a0c85611929565b8060005b85811015611a485784840389528151611a2985826119c4565b9450611a34836119d8565b925060208a01995050600181019050611a10565b50829750879550505050505092915050565b60006020820190508181036000830152611a7481846119e5565b905092915050565b7f4e487b7100000000000000000000000000000000000000000000000000000000600052602260045260246000fd5b60006002820490506001821680611ac357607f821691505b602082108103611ad657611ad5611a7c565b5b50919050565b7f4e487b7100000000000000000000000000000000000000000000000000000000600052604160045260246000fd5b60008190508160005260206000209050919050565b60006020601f8301049050919050565b600082821b905092915050565b600060088302611b6d7fffffffffffffffffffffffffffffffffffffffffffffffffffffffffffffffff82611b30565b611b778683611b30565b95508019841693508086168417925050509392505050565b6000819050919050565b6000611bb4611baf611baa846112f2565b611b8f565b6112f2565b9050919050565b6000819050919050565b611bce83611b99565b611be2611bda82611bbb565b848454611b3d565b825550505050565b600090565b611bf7611bea565b611c02818484611bc5565b505050565b5b81811015611c2657611c1b600082611bef565b600181019050611c08565b5050565b601f821115611c6b57611c3c81611b0b565b611c4584611b20565b81016020851015611c54578190505b611c68611c6085611b20565b830182611c07565b50505b505050565b600082821c905092915050565b6000611c8e60001984600802611c70565b1980831691505092915050565b6000611ca78383611c7d565b9150826002028217905092915050565b611cc082611355565b67ffffffffffffffff811115611cd957611cd8611adc565b5b611ce38254611aab565b611cee828285611c2a565b600060209050601f831160018114611d215760008415611d0f578287015190505b611d198582611c9b565b865550611d81565b601f198416611d2f86611b0b565b60005b82811015611d5757848901518255600182019150602085019450602081019050611d32565b86831015611d745784890151611d70601f891682611c7d565b8355505b6001600288020188555050505b505050505050565b7f4e487b7100000000000000000000000000000000000000000000000000000000600052601160045260246000fd5b6000611dc382611463565b9150611dce83611463565b9250828201905061ffff811115611de857611de7611d89565b5b92915050565b7f4e487b7100000000000000000000000000000000000000000000000000000000600052603260045260246000fd5b6000611e28826112f2565b91507fffffffffffffffffffffffffffffffffffffffffffffffffffffffffffffffff8203611e5a57611e59611d89565b5b600182019050919050565b6000611e70826112f2565b9150611e7b836112f2565b9250828201905080821115611e9357611e92611d89565b5b92915050565b600082905092915050565b611eae8383611e99565b67ffffffffffffffff811115611ec757611ec6611adc565b5b611ed18254611aab565b611edc828285611c2a565b6000601f831160018114611f0b5760008415611ef9578287013590505b611f038582611c9b565b865550611f6b565b601f198416611f1986611b0b565b60005b82811015611f4157848901358255600182019150602085019450602081019050611f1c565b86831015611f5e5784890135611f5a601f891682611c7d565b8355505b6001600288020188555050505b5050505050505056fea2646970667358221220baaa3f54eba4b829a482af1bdcd74fc2b108cf73fe700fcdcd82a9b5273b303664736f6c63430008130033",
  "linkReferences": {},
  "deployedLinkReferences": {}
}