{
  "_format": "hh-sol-artifact-1",
  "contractName": "AccessibleNetworkManagementContract",
  "sourceName": "contracts/AccessibleNetworkMangementContract.sol",
  "abi": [
    {
      "inputs": [
        {
          "internalType": "uint256",
          "name": "",
          "type": "uint256"
        }
      ],
      "name": "accessibleNetworkIndexs",
      "outputs": [
        {
          "internalType": "uint256",
          "name": "",
          "type": "uint256"
        }
      ],
      "stateMutability": "view",
      "type": "function"
    },
    {
      "inputs": [
        {
          "internalType": "uint256",
          "name": "",
          "type": "uint256"
        }
      ],
      "name": "accessibleNetworks",
      "outputs": [
        {
          "internalType": "string",
          "name": "networkName",
          "type": "string"
        },
        {
          "internalType": "string",
          "name": "networkIP",
          "type": "string"
        },
        {
          "internalType": "string",
          "name": "networkAddress",
          "type": "string"
        },
        {
          "internalType": "string",
          "name": "companyName",
          "type": "string"
        },
        {
          "internalType": "uint256",
          "name": "accessibleNetworkId",
          "type": "uint256"
        }
      ],
      "stateMutability": "view",
      "type": "function"
    },
    {
      "inputs": [
        {
          "internalType": "string",
          "name": "networkName",
          "type": "string"
        },
        {
          "internalType": "string",
          "name": "networkIP",
          "type": "string"
        },
        {
          "internalType": "string",
          "name": "networkAddress",
          "type": "string"
        },
        {
          "internalType": "string",
          "name": "companyName",
          "type": "string"
        }
      ],
      "name": "createAccessibleNetwork",
      "outputs": [
        {
          "components": [
            {
              "internalType": "string",
              "name": "networkName",
              "type": "string"
            },
            {
              "internalType": "string",
              "name": "networkIP",
              "type": "string"
            },
            {
              "internalType": "string",
              "name": "networkAddress",
              "type": "string"
            },
            {
              "internalType": "string",
              "name": "companyName",
              "type": "string"
            },
            {
              "internalType": "uint256",
              "name": "accessibleNetworkId",
              "type": "uint256"
            }
          ],
          "internalType": "struct AccessibleNetworkManagementContract.AccessibleNetwork",
          "name": "",
          "type": "tuple"
        }
      ],
      "stateMutability": "nonpayable",
      "type": "function"
    },
    {
      "inputs": [
        {
          "internalType": "uint256",
          "name": "accessibleNetworkId",
          "type": "uint256"
        }
      ],
      "name": "deleteAccessibleNetwork",
      "outputs": [],
      "stateMutability": "nonpayable",
      "type": "function"
    },
    {
      "inputs": [],
      "name": "existingAccessibleNetworks",
      "outputs": [
        {
          "internalType": "uint16",
          "name": "",
          "type": "uint16"
        }
      ],
      "stateMutability": "view",
      "type": "function"
    },
    {
      "inputs": [],
      "name": "generateAccessibleNetworkId",
      "outputs": [
        {
          "internalType": "uint256",
          "name": "",
          "type": "uint256"
        }
      ],
      "stateMutability": "view",
      "type": "function"
    },
    {
      "inputs": [
        {
          "internalType": "uint256",
          "name": "accessibleNetworkId",
          "type": "uint256"
        }
      ],
      "name": "getAccessibleNetwork",
      "outputs": [
        {
          "components": [
            {
              "internalType": "string",
              "name": "networkName",
              "type": "string"
            },
            {
              "internalType": "string",
              "name": "networkIP",
              "type": "string"
            },
            {
              "internalType": "string",
              "name": "networkAddress",
              "type": "string"
            },
            {
              "internalType": "string",
              "name": "companyName",
              "type": "string"
            },
            {
              "internalType": "uint256",
              "name": "accessibleNetworkId",
              "type": "uint256"
            }
          ],
          "internalType": "struct AccessibleNetworkManagementContract.AccessibleNetwork",
          "name": "",
          "type": "tuple"
        }
      ],
      "stateMutability": "view",
      "type": "function"
    },
    {
      "inputs": [],
      "name": "getAccessibleNetworksNumber",
      "outputs": [
        {
          "internalType": "uint256",
          "name": "",
          "type": "uint256"
        }
      ],
      "stateMutability": "view",
      "type": "function"
    },
    {
      "inputs": [],
      "name": "getAllAccessibleNetworks",
      "outputs": [
        {
          "components": [
            {
              "internalType": "string",
              "name": "networkName",
              "type": "string"
            },
            {
              "internalType": "string",
              "name": "networkIP",
              "type": "string"
            },
            {
              "internalType": "string",
              "name": "networkAddress",
              "type": "string"
            },
            {
              "internalType": "string",
              "name": "companyName",
              "type": "string"
            },
            {
              "internalType": "uint256",
              "name": "accessibleNetworkId",
              "type": "uint256"
            }
          ],
          "internalType": "struct AccessibleNetworkManagementContract.AccessibleNetwork[]",
          "name": "",
          "type": "tuple[]"
        }
      ],
      "stateMutability": "view",
      "type": "function"
    },
    {
      "inputs": [
        {
          "internalType": "uint256",
          "name": "accessibleNetworkId",
          "type": "uint256"
        }
      ],
      "name": "isAccessibleNetworkExist",
      "outputs": [
        {
          "internalType": "bool",
          "name": "",
          "type": "bool"
        }
      ],
      "stateMutability": "view",
      "type": "function"
    },
    {
      "inputs": [
        {
          "internalType": "uint256",
          "name": "accessibleNetworkId",
          "type": "uint256"
        },
        {
          "internalType": "string",
          "name": "networkName",
          "type": "string"
        },
        {
          "internalType": "string",
          "name": "networkIP",
          "type": "string"
        },
        {
          "internalType": "string",
          "name": "networkAddress",
          "type": "string"
        },
        {
          "internalType": "string",
          "name": "companyName",
          "type": "string"
        }
      ],
      "name": "updateAccessibleNetwork",
      "outputs": [
        {
          "components": [
            {
              "internalType": "string",
              "name": "networkName",
              "type": "string"
            },
            {
              "internalType": "string",
              "name": "networkIP",
              "type": "string"
            },
            {
              "internalType": "string",
              "name": "networkAddress",
              "type": "string"
            },
            {
              "internalType": "string",
              "name": "companyName",
              "type": "string"
            },
            {
              "internalType": "uint256",
              "name": "accessibleNetworkId",
              "type": "uint256"
            }
          ],
          "internalType": "struct AccessibleNetworkManagementContract.AccessibleNetwork",
          "name": "",
          "type": "tuple"
        }
      ],
      "stateMutability": "nonpayable",
      "type": "function"
    }
  ],
  "bytecode": "0x60806040526000600260006101000a81548161ffff021916908361ffff16021790555034801561002e57600080fd5b50611e138061003e6000396000f3fe608060405234801561001057600080fd5b50600436106100a95760003560e01c806366be824e1161007157806366be824e14610166578063691b361414610184578063903c1263146101b8578063ae59854e146101e8578063af92845614610218578063da23331914610248576100a9565b80630675b00b146100ae57806333cc4c8b146100de57806335fb246b146100fc57806346e4e3d01461011a5780634bdc1f3f14610136575b600080fd5b6100c860048036038101906100c3919061125b565b610266565b6040516100d59190611478565b60405180910390f35b6100e66104a0565b6040516100f391906114a9565b60405180910390f35b6101046104bc565b60405161011191906114e1565b60405180910390f35b610134600480360381019061012f9190611528565b6104d0565b005b610150600480360381019061014b9190611528565b6105d5565b60405161015d9190611478565b60405180910390f35b61016e610853565b60405161017b91906114a9565b60405180910390f35b61019e60048036038101906101999190611528565b61086b565b6040516101af95949392919061159f565b60405180910390f35b6101d260048036038101906101cd9190611528565b610ac1565b6040516101df91906114a9565b60405180910390f35b61020260048036038101906101fd919061160e565b610ae5565b60405161020f9190611478565b60405180910390f35b610232600480360381019061022d9190611528565b610dc1565b60405161023f9190611725565b60405180910390f35b610250610df2565b60405161025d919061188d565b60405180910390f35b61026e611160565b6000610278610853565b905060006040518060a001604052808c8c8080601f016020809104026020016040519081016040528093929190818152602001838380828437600081840152601f19601f8201169050808301925050505050505081526020018a8a8080601f016020809104026020016040519081016040528093929190818152602001838380828437600081840152601f19601f82011690508083019250505050505050815260200188888080601f016020809104026020016040519081016040528093929190818152602001838380828437600081840152601f19601f82011690508083019250505050505050815260200186868080601f016020809104026020016040519081016040528093929190818152602001838380828437600081840152601f19601f8201169050808301925050505050505081526020018381525090508060008084815260200190815260200160002060008201518160000190816103dd9190611aea565b5060208201518160010190816103f39190611aea565b5060408201518160020190816104099190611aea565b50606082015181600301908161041f9190611aea565b506080820151816004015590505060018290806001815401808255809150506001900390600052602060002001600090919091909150556001600260009054906101000a900461ffff166104739190611beb565b600260006101000a81548161ffff021916908361ffff160217905550809250505098975050505050505050565b6000600260009054906101000a900461ffff1661ffff16905090565b600260009054906101000a900461ffff1681565b600080828152602001908152602001600020600080820160006104f3919061118f565b600182016000610503919061118f565b600282016000610513919061118f565b600382016000610523919061118f565b6004820160009055505060005b60018054905081101561059857816001828154811061055257610551611c21565b5b906000526020600020015403610585576001818154811061057657610575611c21565b5b90600052602060002001600090555b808061059090611c50565b915050610530565b506001600260009054906101000a900461ffff166105b69190611c98565b600260006101000a81548161ffff021916908361ffff16021790555050565b6105dd611160565b6000808381526020019081526020016000206040518060a001604052908160008201805461060a9061190d565b80601f01602080910402602001604051908101604052809291908181526020018280546106369061190d565b80156106835780601f1061065857610100808354040283529160200191610683565b820191906000526020600020905b81548152906001019060200180831161066657829003601f168201915b5050505050815260200160018201805461069c9061190d565b80601f01602080910402602001604051908101604052809291908181526020018280546106c89061190d565b80156107155780601f106106ea57610100808354040283529160200191610715565b820191906000526020600020905b8154815290600101906020018083116106f857829003601f168201915b5050505050815260200160028201805461072e9061190d565b80601f016020809104026020016040519081016040528092919081815260200182805461075a9061190d565b80156107a75780601f1061077c576101008083540402835291602001916107a7565b820191906000526020600020905b81548152906001019060200180831161078a57829003601f168201915b505050505081526020016003820180546107c09061190d565b80601f01602080910402602001604051908101604052809291908181526020018280546107ec9061190d565b80156108395780601f1061080e57610100808354040283529160200191610839565b820191906000526020600020905b81548152906001019060200180831161081c57829003601f168201915b505050505081526020016004820154815250509050919050565b6000600180805490506108669190611cce565b905090565b600060205280600052604060002060009150905080600001805461088e9061190d565b80601f01602080910402602001604051908101604052809291908181526020018280546108ba9061190d565b80156109075780601f106108dc57610100808354040283529160200191610907565b820191906000526020600020905b8154815290600101906020018083116108ea57829003601f168201915b50505050509080600101805461091c9061190d565b80601f01602080910402602001604051908101604052809291908181526020018280546109489061190d565b80156109955780601f1061096a57610100808354040283529160200191610995565b820191906000526020600020905b81548152906001019060200180831161097857829003601f168201915b5050505050908060020180546109aa9061190d565b80601f01602080910402602001604051908101604052809291908181526020018280546109d69061190d565b8015610a235780601f106109f857610100808354040283529160200191610a23565b820191906000526020600020905b815481529060010190602001808311610a0657829003601f168201915b505050505090806003018054610a389061190d565b80601f0160208091040260200160405190810160405280929190818152602001828054610a649061190d565b8015610ab15780601f10610a8657610100808354040283529160200191610ab1565b820191906000526020600020905b815481529060010190602001808311610a9457829003601f168201915b5050505050908060040154905085565b60018181548110610ad157600080fd5b906000526020600020016000915090505481565b610aed611160565b60008060008c815260200190815260200160002090508989826000019182610b16929190611d0d565b508787826001019182610b2a929190611d0d565b508585826002019182610b3e929190611d0d565b508383826003019182610b52929190611d0d565b50806040518060a0016040529081600082018054610b6f9061190d565b80601f0160208091040260200160405190810160405280929190818152602001828054610b9b9061190d565b8015610be85780601f10610bbd57610100808354040283529160200191610be8565b820191906000526020600020905b815481529060010190602001808311610bcb57829003601f168201915b50505050508152602001600182018054610c019061190d565b80601f0160208091040260200160405190810160405280929190818152602001828054610c2d9061190d565b8015610c7a5780601f10610c4f57610100808354040283529160200191610c7a565b820191906000526020600020905b815481529060010190602001808311610c5d57829003601f168201915b50505050508152602001600282018054610c939061190d565b80601f0160208091040260200160405190810160405280929190818152602001828054610cbf9061190d565b8015610d0c5780601f10610ce157610100808354040283529160200191610d0c565b820191906000526020600020905b815481529060010190602001808311610cef57829003601f168201915b50505050508152602001600382018054610d259061190d565b80601f0160208091040260200160405190810160405280929190818152602001828054610d519061190d565b8015610d9e5780601f10610d7357610100808354040283529160200191610d9e565b820191906000526020600020905b815481529060010190602001808311610d8157829003601f168201915b505050505081526020016004820154815250509150509998505050505050505050565b6000806000808481526020019081526020016000206004015403610de85760009050610ded565b600190505b919050565b60606000600260009054906101000a900461ffff1661ffff1667ffffffffffffffff811115610e2457610e236118af565b5b604051908082528060200260200182016040528015610e5d57816020015b610e4a611160565b815260200190600190039081610e425790505b5090506000805b60018054905081101561115757600060018281548110610e8757610e86611c21565b5b9060005260206000200154905060008103610ea25750611144565b6000808281526020019081526020016000206040518060a0016040529081600082018054610ecf9061190d565b80601f0160208091040260200160405190810160405280929190818152602001828054610efb9061190d565b8015610f485780601f10610f1d57610100808354040283529160200191610f48565b820191906000526020600020905b815481529060010190602001808311610f2b57829003601f168201915b50505050508152602001600182018054610f619061190d565b80601f0160208091040260200160405190810160405280929190818152602001828054610f8d9061190d565b8015610fda5780601f10610faf57610100808354040283529160200191610fda565b820191906000526020600020905b815481529060010190602001808311610fbd57829003601f168201915b50505050508152602001600282018054610ff39061190d565b80601f016020809104026020016040519081016040528092919081815260200182805461101f9061190d565b801561106c5780601f106110415761010080835404028352916020019161106c565b820191906000526020600020905b81548152906001019060200180831161104f57829003601f168201915b505050505081526020016003820180546110859061190d565b80601f01602080910402602001604051908101604052809291908181526020018280546110b19061190d565b80156110fe5780601f106110d3576101008083540402835291602001916110fe565b820191906000526020600020905b8154815290600101906020018083116110e157829003601f168201915b50505050508152602001600482015481525050848461ffff168151811061112857611127611c21565b5b60200260200101819052506001836111409190611beb565b9250505b808061114f90611c50565b915050610e64565b50819250505090565b6040518060a0016040528060608152602001606081526020016060815260200160608152602001600081525090565b50805461119b9061190d565b6000825580601f106111ad57506111cc565b601f0160209004906000526020600020908101906111cb91906111cf565b5b50565b5b808211156111e85760008160009055506001016111d0565b5090565b600080fd5b600080fd5b600080fd5b600080fd5b600080fd5b60008083601f84011261121b5761121a6111f6565b5b8235905067ffffffffffffffff811115611238576112376111fb565b5b60208301915083600182028301111561125457611253611200565b5b9250929050565b6000806000806000806000806080898b03121561127b5761127a6111ec565b5b600089013567ffffffffffffffff811115611299576112986111f1565b5b6112a58b828c01611205565b9850985050602089013567ffffffffffffffff8111156112c8576112c76111f1565b5b6112d48b828c01611205565b9650965050604089013567ffffffffffffffff8111156112f7576112f66111f1565b5b6113038b828c01611205565b9450945050606089013567ffffffffffffffff811115611326576113256111f1565b5b6113328b828c01611205565b92509250509295985092959890939650565b600081519050919050565b600082825260208201905092915050565b60005b8381101561137e578082015181840152602081019050611363565b60008484015250505050565b6000601f19601f8301169050919050565b60006113a682611344565b6113b0818561134f565b93506113c0818560208601611360565b6113c98161138a565b840191505092915050565b6000819050919050565b6113e7816113d4565b82525050565b600060a083016000830151848203600086015261140a828261139b565b91505060208301518482036020860152611424828261139b565b9150506040830151848203604086015261143e828261139b565b91505060608301518482036060860152611458828261139b565b915050608083015161146d60808601826113de565b508091505092915050565b6000602082019050818103600083015261149281846113ed565b905092915050565b6114a3816113d4565b82525050565b60006020820190506114be600083018461149a565b92915050565b600061ffff82169050919050565b6114db816114c4565b82525050565b60006020820190506114f660008301846114d2565b92915050565b611505816113d4565b811461151057600080fd5b50565b600081359050611522816114fc565b92915050565b60006020828403121561153e5761153d6111ec565b5b600061154c84828501611513565b91505092915050565b600082825260208201905092915050565b600061157182611344565b61157b8185611555565b935061158b818560208601611360565b6115948161138a565b840191505092915050565b600060a08201905081810360008301526115b98188611566565b905081810360208301526115cd8187611566565b905081810360408301526115e18186611566565b905081810360608301526115f58185611566565b9050611604608083018461149a565b9695505050505050565b600080600080600080600080600060a08a8c0312156116305761162f6111ec565b5b600061163e8c828d01611513565b99505060208a013567ffffffffffffffff81111561165f5761165e6111f1565b5b61166b8c828d01611205565b985098505060408a013567ffffffffffffffff81111561168e5761168d6111f1565b5b61169a8c828d01611205565b965096505060608a013567ffffffffffffffff8111156116bd576116bc6111f1565b5b6116c98c828d01611205565b945094505060808a013567ffffffffffffffff8111156116ec576116eb6111f1565b5b6116f88c828d01611205565b92509250509295985092959850929598565b60008115159050919050565b61171f8161170a565b82525050565b600060208201905061173a6000830184611716565b92915050565b600081519050919050565b600082825260208201905092915050565b6000819050602082019050919050565b600060a0830160008301518482036000860152611789828261139b565b915050602083015184820360208601526117a3828261139b565b915050604083015184820360408601526117bd828261139b565b915050606083015184820360608601526117d7828261139b565b91505060808301516117ec60808601826113de565b508091505092915050565b6000611803838361176c565b905092915050565b6000602082019050919050565b600061182382611740565b61182d818561174b565b93508360208202850161183f8561175c565b8060005b8581101561187b578484038952815161185c85826117f7565b94506118678361180b565b925060208a01995050600181019050611843565b50829750879550505050505092915050565b600060208201905081810360008301526118a78184611818565b905092915050565b7f4e487b7100000000000000000000000000000000000000000000000000000000600052604160045260246000fd5b7f4e487b7100000000000000000000000000000000000000000000000000000000600052602260045260246000fd5b6000600282049050600182168061192557607f821691505b602082108103611938576119376118de565b5b50919050565b60008190508160005260206000209050919050565b60006020601f8301049050919050565b600082821b905092915050565b6000600883026119a07fffffffffffffffffffffffffffffffffffffffffffffffffffffffffffffffff82611963565b6119aa8683611963565b95508019841693508086168417925050509392505050565b6000819050919050565b60006119e76119e26119dd846113d4565b6119c2565b6113d4565b9050919050565b6000819050919050565b611a01836119cc565b611a15611a0d826119ee565b848454611970565b825550505050565b600090565b611a2a611a1d565b611a358184846119f8565b505050565b5b81811015611a5957611a4e600082611a22565b600181019050611a3b565b5050565b601f821115611a9e57611a6f8161193e565b611a7884611953565b81016020851015611a87578190505b611a9b611a9385611953565b830182611a3a565b50505b505050565b600082821c905092915050565b6000611ac160001984600802611aa3565b1980831691505092915050565b6000611ada8383611ab0565b9150826002028217905092915050565b611af382611344565b67ffffffffffffffff811115611b0c57611b0b6118af565b5b611b16825461190d565b611b21828285611a5d565b600060209050601f831160018114611b545760008415611b42578287015190505b611b4c8582611ace565b865550611bb4565b601f198416611b628661193e565b60005b82811015611b8a57848901518255600182019150602085019450602081019050611b65565b86831015611ba75784890151611ba3601f891682611ab0565b8355505b6001600288020188555050505b505050505050565b7f4e487b7100000000000000000000000000000000000000000000000000000000600052601160045260246000fd5b6000611bf6826114c4565b9150611c01836114c4565b9250828201905061ffff811115611c1b57611c1a611bbc565b5b92915050565b7f4e487b7100000000000000000000000000000000000000000000000000000000600052603260045260246000fd5b6000611c5b826113d4565b91507fffffffffffffffffffffffffffffffffffffffffffffffffffffffffffffffff8203611c8d57611c8c611bbc565b5b600182019050919050565b6000611ca3826114c4565b9150611cae836114c4565b9250828203905061ffff811115611cc857611cc7611bbc565b5b92915050565b6000611cd9826113d4565b9150611ce4836113d4565b9250828201905080821115611cfc57611cfb611bbc565b5b92915050565b600082905092915050565b611d178383611d02565b67ffffffffffffffff811115611d3057611d2f6118af565b5b611d3a825461190d565b611d45828285611a5d565b6000601f831160018114611d745760008415611d62578287013590505b611d6c8582611ace565b865550611dd4565b601f198416611d828661193e565b60005b82811015611daa57848901358255600182019150602085019450602081019050611d85565b86831015611dc75784890135611dc3601f891682611ab0565b8355505b6001600288020188555050505b5050505050505056fea2646970667358221220dc5c02d6a2c6c5987f5a899f30e258fab4e06b1a39679c2baa322bf1dbf599ae64736f6c63430008130033",
  "linkReferences": {},
  "deployedLinkReferences": {}
}