{
  "_format": "hh-sol-artifact-1",
  "contractName": "AccessibleNetworkManagementContarcts",
  "sourceName": "contracts/AccessibleNetworkMangementContract.sol",
  "abi": [
    {
      "inputs": [
        {
          "internalType": "uint256",
          "name": "",
          "type": "uint256"
        }
      ],
      "name": "accessibleNetworkIndexs",
      "outputs": [
        {
          "internalType": "uint256",
          "name": "",
          "type": "uint256"
        }
      ],
      "stateMutability": "view",
      "type": "function"
    },
    {
      "inputs": [
        {
          "internalType": "uint256",
          "name": "",
          "type": "uint256"
        }
      ],
      "name": "accessibleNetworks",
      "outputs": [
        {
          "internalType": "string",
          "name": "networkName",
          "type": "string"
        },
        {
          "internalType": "string",
          "name": "networkIP",
          "type": "string"
        },
        {
          "internalType": "string",
          "name": "networkAddress",
          "type": "string"
        },
        {
          "internalType": "string",
          "name": "companyName",
          "type": "string"
        },
        {
          "internalType": "uint256",
          "name": "accessibleNetworkId",
          "type": "uint256"
        }
      ],
      "stateMutability": "view",
      "type": "function"
    },
    {
      "inputs": [
        {
          "internalType": "string",
          "name": "networkName",
          "type": "string"
        },
        {
          "internalType": "string",
          "name": "networkIP",
          "type": "string"
        },
        {
          "internalType": "string",
          "name": "networkAddress",
          "type": "string"
        },
        {
          "internalType": "string",
          "name": "companyName",
          "type": "string"
        }
      ],
      "name": "createAccessibleNetwork",
      "outputs": [
        {
          "components": [
            {
              "internalType": "string",
              "name": "networkName",
              "type": "string"
            },
            {
              "internalType": "string",
              "name": "networkIP",
              "type": "string"
            },
            {
              "internalType": "string",
              "name": "networkAddress",
              "type": "string"
            },
            {
              "internalType": "string",
              "name": "companyName",
              "type": "string"
            },
            {
              "internalType": "uint256",
              "name": "accessibleNetworkId",
              "type": "uint256"
            }
          ],
          "internalType": "struct AccessibleNetworkManagementContarcts.AccessibleNetwork",
          "name": "",
          "type": "tuple"
        }
      ],
      "stateMutability": "nonpayable",
      "type": "function"
    },
    {
      "inputs": [
        {
          "internalType": "uint256",
          "name": "accessibleNetworkId",
          "type": "uint256"
        }
      ],
      "name": "deleteAccessibleNetwork",
      "outputs": [],
      "stateMutability": "nonpayable",
      "type": "function"
    },
    {
      "inputs": [],
      "name": "existingAccessibleNetworks",
      "outputs": [
        {
          "internalType": "uint16",
          "name": "",
          "type": "uint16"
        }
      ],
      "stateMutability": "view",
      "type": "function"
    },
    {
      "inputs": [],
      "name": "generateAccessibleNetworkId",
      "outputs": [
        {
          "internalType": "uint256",
          "name": "",
          "type": "uint256"
        }
      ],
      "stateMutability": "view",
      "type": "function"
    },
    {
      "inputs": [
        {
          "internalType": "uint256",
          "name": "accessibleNetworkId",
          "type": "uint256"
        }
      ],
      "name": "getAccessibleNetwork",
      "outputs": [
        {
          "components": [
            {
              "internalType": "string",
              "name": "networkName",
              "type": "string"
            },
            {
              "internalType": "string",
              "name": "networkIP",
              "type": "string"
            },
            {
              "internalType": "string",
              "name": "networkAddress",
              "type": "string"
            },
            {
              "internalType": "string",
              "name": "companyName",
              "type": "string"
            },
            {
              "internalType": "uint256",
              "name": "accessibleNetworkId",
              "type": "uint256"
            }
          ],
          "internalType": "struct AccessibleNetworkManagementContarcts.AccessibleNetwork",
          "name": "",
          "type": "tuple"
        }
      ],
      "stateMutability": "view",
      "type": "function"
    },
    {
      "inputs": [],
      "name": "getAccessibleNetworksNumber",
      "outputs": [
        {
          "internalType": "uint256",
          "name": "",
          "type": "uint256"
        }
      ],
      "stateMutability": "view",
      "type": "function"
    },
    {
      "inputs": [],
      "name": "getAllAccessibleNetworks",
      "outputs": [
        {
          "components": [
            {
              "internalType": "string",
              "name": "networkName",
              "type": "string"
            },
            {
              "internalType": "string",
              "name": "networkIP",
              "type": "string"
            },
            {
              "internalType": "string",
              "name": "networkAddress",
              "type": "string"
            },
            {
              "internalType": "string",
              "name": "companyName",
              "type": "string"
            },
            {
              "internalType": "uint256",
              "name": "accessibleNetworkId",
              "type": "uint256"
            }
          ],
          "internalType": "struct AccessibleNetworkManagementContarcts.AccessibleNetwork[]",
          "name": "",
          "type": "tuple[]"
        }
      ],
      "stateMutability": "view",
      "type": "function"
    },
    {
      "inputs": [
        {
          "internalType": "uint256",
          "name": "accessibleNetworkId",
          "type": "uint256"
        }
      ],
      "name": "isAccessibleNetworkExist",
      "outputs": [
        {
          "internalType": "bool",
          "name": "",
          "type": "bool"
        }
      ],
      "stateMutability": "view",
      "type": "function"
    },
    {
      "inputs": [
        {
          "internalType": "uint256",
          "name": "accessibleNetworkId",
          "type": "uint256"
        },
        {
          "internalType": "string",
          "name": "networkName",
          "type": "string"
        },
        {
          "internalType": "string",
          "name": "networkIP",
          "type": "string"
        },
        {
          "internalType": "string",
          "name": "networkAddress",
          "type": "string"
        },
        {
          "internalType": "string",
          "name": "companyName",
          "type": "string"
        }
      ],
      "name": "updateAccessibleNetwork",
      "outputs": [
        {
          "components": [
            {
              "internalType": "string",
              "name": "networkName",
              "type": "string"
            },
            {
              "internalType": "string",
              "name": "networkIP",
              "type": "string"
            },
            {
              "internalType": "string",
              "name": "networkAddress",
              "type": "string"
            },
            {
              "internalType": "string",
              "name": "companyName",
              "type": "string"
            },
            {
              "internalType": "uint256",
              "name": "accessibleNetworkId",
              "type": "uint256"
            }
          ],
          "internalType": "struct AccessibleNetworkManagementContarcts.AccessibleNetwork",
          "name": "",
          "type": "tuple"
        }
      ],
      "stateMutability": "nonpayable",
      "type": "function"
    }
  ],
  "bytecode": "0x60806040526000600260006101000a81548161ffff021916908361ffff16021790555034801561002e57600080fd5b50611e0d8061003e6000396000f3fe608060405234801561001057600080fd5b50600436106100a95760003560e01c806366be824e1161007157806366be824e14610166578063691b361414610184578063903c1263146101b8578063ae59854e146101e8578063af92845614610218578063da23331914610248576100a9565b80630675b00b146100ae57806333cc4c8b146100de57806335fb246b146100fc57806346e4e3d01461011a5780634bdc1f3f14610136575b600080fd5b6100c860048036038101906100c39190611255565b610266565b6040516100d59190611472565b60405180910390f35b6100e66104a0565b6040516100f391906114a3565b60405180910390f35b6101046104bc565b60405161011191906114db565b60405180910390f35b610134600480360381019061012f9190611522565b6104d0565b005b610150600480360381019061014b9190611522565b6105d5565b60405161015d9190611472565b60405180910390f35b61016e610853565b60405161017b91906114a3565b60405180910390f35b61019e60048036038101906101999190611522565b61086b565b6040516101af959493929190611599565b60405180910390f35b6101d260048036038101906101cd9190611522565b610ac1565b6040516101df91906114a3565b60405180910390f35b61020260048036038101906101fd9190611608565b610ae5565b60405161020f9190611472565b60405180910390f35b610232600480360381019061022d9190611522565b610dc1565b60405161023f919061171f565b60405180910390f35b610250610df2565b60405161025d9190611887565b60405180910390f35b61026e61115a565b6000610278610853565b905060006040518060a001604052808c8c8080601f016020809104026020016040519081016040528093929190818152602001838380828437600081840152601f19601f8201169050808301925050505050505081526020018a8a8080601f016020809104026020016040519081016040528093929190818152602001838380828437600081840152601f19601f82011690508083019250505050505050815260200188888080601f016020809104026020016040519081016040528093929190818152602001838380828437600081840152601f19601f82011690508083019250505050505050815260200186868080601f016020809104026020016040519081016040528093929190818152602001838380828437600081840152601f19601f8201169050808301925050505050505081526020018381525090508060008084815260200190815260200160002060008201518160000190816103dd9190611ae4565b5060208201518160010190816103f39190611ae4565b5060408201518160020190816104099190611ae4565b50606082015181600301908161041f9190611ae4565b506080820151816004015590505060018290806001815401808255809150506001900390600052602060002001600090919091909150556001600260009054906101000a900461ffff166104739190611be5565b600260006101000a81548161ffff021916908361ffff160217905550809250505098975050505050505050565b6000600260009054906101000a900461ffff1661ffff16905090565b600260009054906101000a900461ffff1681565b600080828152602001908152602001600020600080820160006104f39190611189565b6001820160006105039190611189565b6002820160006105139190611189565b6003820160006105239190611189565b6004820160009055505060005b60018054905081101561059857816001828154811061055257610551611c1b565b5b906000526020600020015403610585576001818154811061057657610575611c1b565b5b90600052602060002001600090555b808061059090611c4a565b915050610530565b506001600260009054906101000a900461ffff166105b69190611c92565b600260006101000a81548161ffff021916908361ffff16021790555050565b6105dd61115a565b6000808381526020019081526020016000206040518060a001604052908160008201805461060a90611907565b80601f016020809104026020016040519081016040528092919081815260200182805461063690611907565b80156106835780601f1061065857610100808354040283529160200191610683565b820191906000526020600020905b81548152906001019060200180831161066657829003601f168201915b5050505050815260200160018201805461069c90611907565b80601f01602080910402602001604051908101604052809291908181526020018280546106c890611907565b80156107155780601f106106ea57610100808354040283529160200191610715565b820191906000526020600020905b8154815290600101906020018083116106f857829003601f168201915b5050505050815260200160028201805461072e90611907565b80601f016020809104026020016040519081016040528092919081815260200182805461075a90611907565b80156107a75780601f1061077c576101008083540402835291602001916107a7565b820191906000526020600020905b81548152906001019060200180831161078a57829003601f168201915b505050505081526020016003820180546107c090611907565b80601f01602080910402602001604051908101604052809291908181526020018280546107ec90611907565b80156108395780601f1061080e57610100808354040283529160200191610839565b820191906000526020600020905b81548152906001019060200180831161081c57829003601f168201915b505050505081526020016004820154815250509050919050565b6000600180805490506108669190611cc8565b905090565b600060205280600052604060002060009150905080600001805461088e90611907565b80601f01602080910402602001604051908101604052809291908181526020018280546108ba90611907565b80156109075780601f106108dc57610100808354040283529160200191610907565b820191906000526020600020905b8154815290600101906020018083116108ea57829003601f168201915b50505050509080600101805461091c90611907565b80601f016020809104026020016040519081016040528092919081815260200182805461094890611907565b80156109955780601f1061096a57610100808354040283529160200191610995565b820191906000526020600020905b81548152906001019060200180831161097857829003601f168201915b5050505050908060020180546109aa90611907565b80601f01602080910402602001604051908101604052809291908181526020018280546109d690611907565b8015610a235780601f106109f857610100808354040283529160200191610a23565b820191906000526020600020905b815481529060010190602001808311610a0657829003601f168201915b505050505090806003018054610a3890611907565b80601f0160208091040260200160405190810160405280929190818152602001828054610a6490611907565b8015610ab15780601f10610a8657610100808354040283529160200191610ab1565b820191906000526020600020905b815481529060010190602001808311610a9457829003601f168201915b5050505050908060040154905085565b60018181548110610ad157600080fd5b906000526020600020016000915090505481565b610aed61115a565b60008060008c815260200190815260200160002090508989826000019182610b16929190611d07565b508787826001019182610b2a929190611d07565b508585826002019182610b3e929190611d07565b508383826003019182610b52929190611d07565b50806040518060a0016040529081600082018054610b6f90611907565b80601f0160208091040260200160405190810160405280929190818152602001828054610b9b90611907565b8015610be85780601f10610bbd57610100808354040283529160200191610be8565b820191906000526020600020905b815481529060010190602001808311610bcb57829003601f168201915b50505050508152602001600182018054610c0190611907565b80601f0160208091040260200160405190810160405280929190818152602001828054610c2d90611907565b8015610c7a5780601f10610c4f57610100808354040283529160200191610c7a565b820191906000526020600020905b815481529060010190602001808311610c5d57829003601f168201915b50505050508152602001600282018054610c9390611907565b80601f0160208091040260200160405190810160405280929190818152602001828054610cbf90611907565b8015610d0c5780601f10610ce157610100808354040283529160200191610d0c565b820191906000526020600020905b815481529060010190602001808311610cef57829003601f168201915b50505050508152602001600382018054610d2590611907565b80601f0160208091040260200160405190810160405280929190818152602001828054610d5190611907565b8015610d9e5780601f10610d7357610100808354040283529160200191610d9e565b820191906000526020600020905b815481529060010190602001808311610d8157829003601f168201915b505050505081526020016004820154815250509150509998505050505050505050565b6000806000808481526020019081526020016000206004015403610de85760009050610ded565b600190505b919050565b6060600060018054905067ffffffffffffffff811115610e1557610e146118a9565b5b604051908082528060200260200182016040528015610e4e57816020015b610e3b61115a565b815260200190600190039081610e335790505b50905060005b60018054905081101561115257600060018281548110610e7757610e76611c1b565b5b9060005260206000200154905060008103610e92575061113f565b60008060018481548110610ea957610ea8611c1b565b5b906000526020600020015481526020019081526020016000206040518060a0016040529081600082018054610edd90611907565b80601f0160208091040260200160405190810160405280929190818152602001828054610f0990611907565b8015610f565780601f10610f2b57610100808354040283529160200191610f56565b820191906000526020600020905b815481529060010190602001808311610f3957829003601f168201915b50505050508152602001600182018054610f6f90611907565b80601f0160208091040260200160405190810160405280929190818152602001828054610f9b90611907565b8015610fe85780601f10610fbd57610100808354040283529160200191610fe8565b820191906000526020600020905b815481529060010190602001808311610fcb57829003601f168201915b5050505050815260200160028201805461100190611907565b80601f016020809104026020016040519081016040528092919081815260200182805461102d90611907565b801561107a5780601f1061104f5761010080835404028352916020019161107a565b820191906000526020600020905b81548152906001019060200180831161105d57829003601f168201915b5050505050815260200160038201805461109390611907565b80601f01602080910402602001604051908101604052809291908181526020018280546110bf90611907565b801561110c5780601f106110e15761010080835404028352916020019161110c565b820191906000526020600020905b8154815290600101906020018083116110ef57829003601f168201915b5050505050815260200160048201548152505083838151811061113257611131611c1b565b5b6020026020010181905250505b808061114a90611c4a565b915050610e54565b508091505090565b6040518060a0016040528060608152602001606081526020016060815260200160608152602001600081525090565b50805461119590611907565b6000825580601f106111a757506111c6565b601f0160209004906000526020600020908101906111c591906111c9565b5b50565b5b808211156111e25760008160009055506001016111ca565b5090565b600080fd5b600080fd5b600080fd5b600080fd5b600080fd5b60008083601f840112611215576112146111f0565b5b8235905067ffffffffffffffff811115611232576112316111f5565b5b60208301915083600182028301111561124e5761124d6111fa565b5b9250929050565b6000806000806000806000806080898b031215611275576112746111e6565b5b600089013567ffffffffffffffff811115611293576112926111eb565b5b61129f8b828c016111ff565b9850985050602089013567ffffffffffffffff8111156112c2576112c16111eb565b5b6112ce8b828c016111ff565b9650965050604089013567ffffffffffffffff8111156112f1576112f06111eb565b5b6112fd8b828c016111ff565b9450945050606089013567ffffffffffffffff8111156113205761131f6111eb565b5b61132c8b828c016111ff565b92509250509295985092959890939650565b600081519050919050565b600082825260208201905092915050565b60005b8381101561137857808201518184015260208101905061135d565b60008484015250505050565b6000601f19601f8301169050919050565b60006113a08261133e565b6113aa8185611349565b93506113ba81856020860161135a565b6113c381611384565b840191505092915050565b6000819050919050565b6113e1816113ce565b82525050565b600060a08301600083015184820360008601526114048282611395565b9150506020830151848203602086015261141e8282611395565b915050604083015184820360408601526114388282611395565b915050606083015184820360608601526114528282611395565b915050608083015161146760808601826113d8565b508091505092915050565b6000602082019050818103600083015261148c81846113e7565b905092915050565b61149d816113ce565b82525050565b60006020820190506114b86000830184611494565b92915050565b600061ffff82169050919050565b6114d5816114be565b82525050565b60006020820190506114f060008301846114cc565b92915050565b6114ff816113ce565b811461150a57600080fd5b50565b60008135905061151c816114f6565b92915050565b600060208284031215611538576115376111e6565b5b60006115468482850161150d565b91505092915050565b600082825260208201905092915050565b600061156b8261133e565b611575818561154f565b935061158581856020860161135a565b61158e81611384565b840191505092915050565b600060a08201905081810360008301526115b38188611560565b905081810360208301526115c78187611560565b905081810360408301526115db8186611560565b905081810360608301526115ef8185611560565b90506115fe6080830184611494565b9695505050505050565b600080600080600080600080600060a08a8c03121561162a576116296111e6565b5b60006116388c828d0161150d565b99505060208a013567ffffffffffffffff811115611659576116586111eb565b5b6116658c828d016111ff565b985098505060408a013567ffffffffffffffff811115611688576116876111eb565b5b6116948c828d016111ff565b965096505060608a013567ffffffffffffffff8111156116b7576116b66111eb565b5b6116c38c828d016111ff565b945094505060808a013567ffffffffffffffff8111156116e6576116e56111eb565b5b6116f28c828d016111ff565b92509250509295985092959850929598565b60008115159050919050565b61171981611704565b82525050565b60006020820190506117346000830184611710565b92915050565b600081519050919050565b600082825260208201905092915050565b6000819050602082019050919050565b600060a08301600083015184820360008601526117838282611395565b9150506020830151848203602086015261179d8282611395565b915050604083015184820360408601526117b78282611395565b915050606083015184820360608601526117d18282611395565b91505060808301516117e660808601826113d8565b508091505092915050565b60006117fd8383611766565b905092915050565b6000602082019050919050565b600061181d8261173a565b6118278185611745565b93508360208202850161183985611756565b8060005b85811015611875578484038952815161185685826117f1565b945061186183611805565b925060208a0199505060018101905061183d565b50829750879550505050505092915050565b600060208201905081810360008301526118a18184611812565b905092915050565b7f4e487b7100000000000000000000000000000000000000000000000000000000600052604160045260246000fd5b7f4e487b7100000000000000000000000000000000000000000000000000000000600052602260045260246000fd5b6000600282049050600182168061191f57607f821691505b602082108103611932576119316118d8565b5b50919050565b60008190508160005260206000209050919050565b60006020601f8301049050919050565b600082821b905092915050565b60006008830261199a7fffffffffffffffffffffffffffffffffffffffffffffffffffffffffffffffff8261195d565b6119a4868361195d565b95508019841693508086168417925050509392505050565b6000819050919050565b60006119e16119dc6119d7846113ce565b6119bc565b6113ce565b9050919050565b6000819050919050565b6119fb836119c6565b611a0f611a07826119e8565b84845461196a565b825550505050565b600090565b611a24611a17565b611a2f8184846119f2565b505050565b5b81811015611a5357611a48600082611a1c565b600181019050611a35565b5050565b601f821115611a9857611a6981611938565b611a728461194d565b81016020851015611a81578190505b611a95611a8d8561194d565b830182611a34565b50505b505050565b600082821c905092915050565b6000611abb60001984600802611a9d565b1980831691505092915050565b6000611ad48383611aaa565b9150826002028217905092915050565b611aed8261133e565b67ffffffffffffffff811115611b0657611b056118a9565b5b611b108254611907565b611b1b828285611a57565b600060209050601f831160018114611b4e5760008415611b3c578287015190505b611b468582611ac8565b865550611bae565b601f198416611b5c86611938565b60005b82811015611b8457848901518255600182019150602085019450602081019050611b5f565b86831015611ba15784890151611b9d601f891682611aaa565b8355505b6001600288020188555050505b505050505050565b7f4e487b7100000000000000000000000000000000000000000000000000000000600052601160045260246000fd5b6000611bf0826114be565b9150611bfb836114be565b9250828201905061ffff811115611c1557611c14611bb6565b5b92915050565b7f4e487b7100000000000000000000000000000000000000000000000000000000600052603260045260246000fd5b6000611c55826113ce565b91507fffffffffffffffffffffffffffffffffffffffffffffffffffffffffffffffff8203611c8757611c86611bb6565b5b600182019050919050565b6000611c9d826114be565b9150611ca8836114be565b9250828203905061ffff811115611cc257611cc1611bb6565b5b92915050565b6000611cd3826113ce565b9150611cde836113ce565b9250828201905080821115611cf657611cf5611bb6565b5b92915050565b600082905092915050565b611d118383611cfc565b67ffffffffffffffff811115611d2a57611d296118a9565b5b611d348254611907565b611d3f828285611a57565b6000601f831160018114611d6e5760008415611d5c578287013590505b611d668582611ac8565b865550611dce565b601f198416611d7c86611938565b60005b82811015611da457848901358255600182019150602085019450602081019050611d7f565b86831015611dc15784890135611dbd601f891682611aaa565b8355505b6001600288020188555050505b5050505050505056fea2646970667358221220df7a777afd4018aa0b7298d8540572077a6d70f2ce126516988004245518fbca64736f6c63430008130033",
  "linkReferences": {},
  "deployedLinkReferences": {}
}