{
  "_format": "hh-sol-artifact-1",
  "contractName": "PermittedNetworkManagementContract",
  "sourceName": "contracts/PermittedNetworkManagementContract.sol",
  "abi": [
    {
      "inputs": [
        {
          "internalType": "string",
          "name": "networkName",
          "type": "string"
        },
        {
          "internalType": "string",
          "name": "networkIP",
          "type": "string"
        },
        {
          "internalType": "string",
          "name": "networkAddress",
          "type": "string"
        },
        {
          "internalType": "string",
          "name": "companyName",
          "type": "string"
        }
      ],
      "name": "createPermittedNetwork",
      "outputs": [
        {
          "components": [
            {
              "internalType": "string",
              "name": "networkName",
              "type": "string"
            },
            {
              "internalType": "string",
              "name": "networkIP",
              "type": "string"
            },
            {
              "internalType": "string",
              "name": "networkAddress",
              "type": "string"
            },
            {
              "internalType": "string",
              "name": "companyName",
              "type": "string"
            },
            {
              "internalType": "uint256",
              "name": "permittedNetworkId",
              "type": "uint256"
            }
          ],
          "internalType": "struct PermittedNetworkManagementContract.PermittedNetwork",
          "name": "",
          "type": "tuple"
        }
      ],
      "stateMutability": "nonpayable",
      "type": "function"
    },
    {
      "inputs": [
        {
          "internalType": "uint256",
          "name": "permittedNetworkId",
          "type": "uint256"
        }
      ],
      "name": "deletePermittedNetwork",
      "outputs": [],
      "stateMutability": "nonpayable",
      "type": "function"
    },
    {
      "inputs": [],
      "name": "existingPermittedNetworks",
      "outputs": [
        {
          "internalType": "uint16",
          "name": "",
          "type": "uint16"
        }
      ],
      "stateMutability": "view",
      "type": "function"
    },
    {
      "inputs": [],
      "name": "generatePermittedNetworkId",
      "outputs": [
        {
          "internalType": "uint256",
          "name": "",
          "type": "uint256"
        }
      ],
      "stateMutability": "view",
      "type": "function"
    },
    {
      "inputs": [],
      "name": "getAllPermittedNetworks",
      "outputs": [
        {
          "components": [
            {
              "internalType": "string",
              "name": "networkName",
              "type": "string"
            },
            {
              "internalType": "string",
              "name": "networkIP",
              "type": "string"
            },
            {
              "internalType": "string",
              "name": "networkAddress",
              "type": "string"
            },
            {
              "internalType": "string",
              "name": "companyName",
              "type": "string"
            },
            {
              "internalType": "uint256",
              "name": "permittedNetworkId",
              "type": "uint256"
            }
          ],
          "internalType": "struct PermittedNetworkManagementContract.PermittedNetwork[]",
          "name": "",
          "type": "tuple[]"
        }
      ],
      "stateMutability": "view",
      "type": "function"
    },
    {
      "inputs": [
        {
          "internalType": "uint256",
          "name": "permittedNetworkId",
          "type": "uint256"
        }
      ],
      "name": "getPermittedNetwork",
      "outputs": [
        {
          "components": [
            {
              "internalType": "string",
              "name": "networkName",
              "type": "string"
            },
            {
              "internalType": "string",
              "name": "networkIP",
              "type": "string"
            },
            {
              "internalType": "string",
              "name": "networkAddress",
              "type": "string"
            },
            {
              "internalType": "string",
              "name": "companyName",
              "type": "string"
            },
            {
              "internalType": "uint256",
              "name": "permittedNetworkId",
              "type": "uint256"
            }
          ],
          "internalType": "struct PermittedNetworkManagementContract.PermittedNetwork",
          "name": "",
          "type": "tuple"
        }
      ],
      "stateMutability": "view",
      "type": "function"
    },
    {
      "inputs": [],
      "name": "getPermittedNetworkIndexArray",
      "outputs": [
        {
          "internalType": "uint256[]",
          "name": "",
          "type": "uint256[]"
        }
      ],
      "stateMutability": "view",
      "type": "function"
    },
    {
      "inputs": [],
      "name": "getPermittedNetworksNumber",
      "outputs": [
        {
          "internalType": "uint256",
          "name": "",
          "type": "uint256"
        }
      ],
      "stateMutability": "view",
      "type": "function"
    },
    {
      "inputs": [
        {
          "internalType": "uint256",
          "name": "permittedNetworkId",
          "type": "uint256"
        }
      ],
      "name": "permittedNetworkExists",
      "outputs": [
        {
          "internalType": "bool",
          "name": "",
          "type": "bool"
        }
      ],
      "stateMutability": "view",
      "type": "function"
    },
    {
      "inputs": [
        {
          "internalType": "uint256",
          "name": "",
          "type": "uint256"
        }
      ],
      "name": "permittedNetworkIndexs",
      "outputs": [
        {
          "internalType": "uint256",
          "name": "",
          "type": "uint256"
        }
      ],
      "stateMutability": "view",
      "type": "function"
    },
    {
      "inputs": [
        {
          "internalType": "uint256",
          "name": "",
          "type": "uint256"
        }
      ],
      "name": "permittedNetworks",
      "outputs": [
        {
          "internalType": "string",
          "name": "networkName",
          "type": "string"
        },
        {
          "internalType": "string",
          "name": "networkIP",
          "type": "string"
        },
        {
          "internalType": "string",
          "name": "networkAddress",
          "type": "string"
        },
        {
          "internalType": "string",
          "name": "companyName",
          "type": "string"
        },
        {
          "internalType": "uint256",
          "name": "permittedNetworkId",
          "type": "uint256"
        }
      ],
      "stateMutability": "view",
      "type": "function"
    },
    {
      "inputs": [
        {
          "internalType": "uint256",
          "name": "permittedNetworkId",
          "type": "uint256"
        },
        {
          "internalType": "string",
          "name": "networkName",
          "type": "string"
        },
        {
          "internalType": "string",
          "name": "networkIP",
          "type": "string"
        },
        {
          "internalType": "string",
          "name": "networkAddress",
          "type": "string"
        },
        {
          "internalType": "string",
          "name": "companyName",
          "type": "string"
        }
      ],
      "name": "updatePermittedNetwork",
      "outputs": [
        {
          "components": [
            {
              "internalType": "string",
              "name": "networkName",
              "type": "string"
            },
            {
              "internalType": "string",
              "name": "networkIP",
              "type": "string"
            },
            {
              "internalType": "string",
              "name": "networkAddress",
              "type": "string"
            },
            {
              "internalType": "string",
              "name": "companyName",
              "type": "string"
            },
            {
              "internalType": "uint256",
              "name": "permittedNetworkId",
              "type": "uint256"
            }
          ],
          "internalType": "struct PermittedNetworkManagementContract.PermittedNetwork",
          "name": "",
          "type": "tuple"
        }
      ],
      "stateMutability": "nonpayable",
      "type": "function"
    }
  ],
  "bytecode": "0x60806040526000600260006101000a81548161ffff021916908361ffff16021790555034801561002e57600080fd5b50611f478061003e6000396000f3fe608060405234801561001057600080fd5b50600436106100b45760003560e01c8063b1f8472211610071578063b1f84722146101b9578063cdd6b7a1146101d7578063d320f92614610207578063d4d7520114610237578063e349bd2114610255578063fa63b2b714610273576100b4565b80632ef1c75d146100b95780633f7408a5146100ed5780637419fe641461011d5780638361868a1461013b57806383685c98146101595780638eb60baa14610189575b600080fd5b6100d360048036038101906100ce919061128f565b61028f565b6040516100e495949392919061135b565b60405180910390f35b6101076004803603810190610102919061142f565b6104e5565b60405161011491906115fc565b60405180910390f35b61012561071f565b604051610132919061163b565b60405180910390f35b610143610733565b6040516101509190611656565b60405180910390f35b610173600480360381019061016e919061128f565b61074b565b6040516101809190611656565b60405180910390f35b6101a3600480360381019061019e919061128f565b61076f565b6040516101b0919061168c565b60405180910390f35b6101c1610791565b6040516101ce9190611756565b60405180910390f35b6101f160048036038101906101ec9190611778565b6107e9565b6040516101fe91906115fc565b60405180910390f35b610221600480360381019061021c919061128f565b610ac5565b60405161022e91906115fc565b60405180910390f35b61023f610d43565b60405161024c91906119c1565b60405180910390f35b61025d6110b1565b60405161026a9190611656565b60405180910390f35b61028d6004803603810190610288919061128f565b6110be565b005b60006020528060005260406000206000915090508060000180546102b290611a12565b80601f01602080910402602001604051908101604052809291908181526020018280546102de90611a12565b801561032b5780601f106103005761010080835404028352916020019161032b565b820191906000526020600020905b81548152906001019060200180831161030e57829003601f168201915b50505050509080600101805461034090611a12565b80601f016020809104026020016040519081016040528092919081815260200182805461036c90611a12565b80156103b95780601f1061038e576101008083540402835291602001916103b9565b820191906000526020600020905b81548152906001019060200180831161039c57829003601f168201915b5050505050908060020180546103ce90611a12565b80601f01602080910402602001604051908101604052809291908181526020018280546103fa90611a12565b80156104475780601f1061041c57610100808354040283529160200191610447565b820191906000526020600020905b81548152906001019060200180831161042a57829003601f168201915b50505050509080600301805461045c90611a12565b80601f016020809104026020016040519081016040528092919081815260200182805461048890611a12565b80156104d55780601f106104aa576101008083540402835291602001916104d5565b820191906000526020600020905b8154815290600101906020018083116104b857829003601f168201915b5050505050908060040154905085565b6104ed6111c3565b60006104f7610733565b905060006040518060a001604052808c8c8080601f016020809104026020016040519081016040528093929190818152602001838380828437600081840152601f19601f8201169050808301925050505050505081526020018a8a8080601f016020809104026020016040519081016040528093929190818152602001838380828437600081840152601f19601f82011690508083019250505050505050815260200188888080601f016020809104026020016040519081016040528093929190818152602001838380828437600081840152601f19601f82011690508083019250505050505050815260200186868080601f016020809104026020016040519081016040528093929190818152602001838380828437600081840152601f19601f82011690508083019250505050505050815260200183815250905080600080848152602001908152602001600020600082015181600001908161065c9190611c1e565b5060208201518160010190816106729190611c1e565b5060408201518160020190816106889190611c1e565b50606082015181600301908161069e9190611c1e565b506080820151816004015590505060018290806001815401808255809150506001900390600052602060002001600090919091909150556001600260009054906101000a900461ffff166106f29190611d1f565b600260006101000a81548161ffff021916908361ffff160217905550809250505098975050505050505050565b600260009054906101000a900461ffff1681565b6000600180805490506107469190611d55565b905090565b6001818154811061075b57600080fd5b906000526020600020016000915090505481565b6000806000808481526020019081526020016000206004015414159050919050565b606060018054806020026020016040519081016040528092919081815260200182805480156107df57602002820191906000526020600020905b8154815260200190600101908083116107cb575b5050505050905090565b6107f16111c3565b60008060008c81526020019081526020016000209050898982600001918261081a929190611d94565b50878782600101918261082e929190611d94565b508585826002019182610842929190611d94565b508383826003019182610856929190611d94565b50806040518060a001604052908160008201805461087390611a12565b80601f016020809104026020016040519081016040528092919081815260200182805461089f90611a12565b80156108ec5780601f106108c1576101008083540402835291602001916108ec565b820191906000526020600020905b8154815290600101906020018083116108cf57829003601f168201915b5050505050815260200160018201805461090590611a12565b80601f016020809104026020016040519081016040528092919081815260200182805461093190611a12565b801561097e5780601f106109535761010080835404028352916020019161097e565b820191906000526020600020905b81548152906001019060200180831161096157829003601f168201915b5050505050815260200160028201805461099790611a12565b80601f01602080910402602001604051908101604052809291908181526020018280546109c390611a12565b8015610a105780601f106109e557610100808354040283529160200191610a10565b820191906000526020600020905b8154815290600101906020018083116109f357829003601f168201915b50505050508152602001600382018054610a2990611a12565b80601f0160208091040260200160405190810160405280929190818152602001828054610a5590611a12565b8015610aa25780601f10610a7757610100808354040283529160200191610aa2565b820191906000526020600020905b815481529060010190602001808311610a8557829003601f168201915b505050505081526020016004820154815250509150509998505050505050505050565b610acd6111c3565b6000808381526020019081526020016000206040518060a0016040529081600082018054610afa90611a12565b80601f0160208091040260200160405190810160405280929190818152602001828054610b2690611a12565b8015610b735780601f10610b4857610100808354040283529160200191610b73565b820191906000526020600020905b815481529060010190602001808311610b5657829003601f168201915b50505050508152602001600182018054610b8c90611a12565b80601f0160208091040260200160405190810160405280929190818152602001828054610bb890611a12565b8015610c055780601f10610bda57610100808354040283529160200191610c05565b820191906000526020600020905b815481529060010190602001808311610be857829003601f168201915b50505050508152602001600282018054610c1e90611a12565b80601f0160208091040260200160405190810160405280929190818152602001828054610c4a90611a12565b8015610c975780601f10610c6c57610100808354040283529160200191610c97565b820191906000526020600020905b815481529060010190602001808311610c7a57829003601f168201915b50505050508152602001600382018054610cb090611a12565b80601f0160208091040260200160405190810160405280929190818152602001828054610cdc90611a12565b8015610d295780601f10610cfe57610100808354040283529160200191610d29565b820191906000526020600020905b815481529060010190602001808311610d0c57829003601f168201915b505050505081526020016004820154815250509050919050565b60606000600260009054906101000a900461ffff1661ffff1667ffffffffffffffff811115610d7557610d74611a43565b5b604051908082528060200260200182016040528015610dae57816020015b610d9b6111c3565b815260200190600190039081610d935790505b5090506000805b6001805490508110156110a857600060018281548110610dd857610dd7611e64565b5b9060005260206000200154905060008103610df35750611095565b6000808281526020019081526020016000206040518060a0016040529081600082018054610e2090611a12565b80601f0160208091040260200160405190810160405280929190818152602001828054610e4c90611a12565b8015610e995780601f10610e6e57610100808354040283529160200191610e99565b820191906000526020600020905b815481529060010190602001808311610e7c57829003601f168201915b50505050508152602001600182018054610eb290611a12565b80601f0160208091040260200160405190810160405280929190818152602001828054610ede90611a12565b8015610f2b5780601f10610f0057610100808354040283529160200191610f2b565b820191906000526020600020905b815481529060010190602001808311610f0e57829003601f168201915b50505050508152602001600282018054610f4490611a12565b80601f0160208091040260200160405190810160405280929190818152602001828054610f7090611a12565b8015610fbd5780601f10610f9257610100808354040283529160200191610fbd565b820191906000526020600020905b815481529060010190602001808311610fa057829003601f168201915b50505050508152602001600382018054610fd690611a12565b80601f016020809104026020016040519081016040528092919081815260200182805461100290611a12565b801561104f5780601f106110245761010080835404028352916020019161104f565b820191906000526020600020905b81548152906001019060200180831161103257829003601f168201915b50505050508152602001600482015481525050848461ffff168151811061107957611078611e64565b5b60200260200101819052506001836110919190611d1f565b9250505b80806110a090611e93565b915050610db5565b50819250505090565b6000600180549050905090565b600080828152602001908152602001600020600080820160006110e191906111f2565b6001820160006110f191906111f2565b60028201600061110191906111f2565b60038201600061111191906111f2565b6004820160009055505060005b6001805490508110156111865781600182815481106111405761113f611e64565b5b906000526020600020015403611173576001818154811061116457611163611e64565b5b90600052602060002001600090555b808061117e90611e93565b91505061111e565b506001600260009054906101000a900461ffff166111a49190611edb565b600260006101000a81548161ffff021916908361ffff16021790555050565b6040518060a0016040528060608152602001606081526020016060815260200160608152602001600081525090565b5080546111fe90611a12565b6000825580601f10611210575061122f565b601f01602090049060005260206000209081019061122e9190611232565b5b50565b5b8082111561124b576000816000905550600101611233565b5090565b600080fd5b600080fd5b6000819050919050565b61126c81611259565b811461127757600080fd5b50565b60008135905061128981611263565b92915050565b6000602082840312156112a5576112a461124f565b5b60006112b38482850161127a565b91505092915050565b600081519050919050565b600082825260208201905092915050565b60005b838110156112f65780820151818401526020810190506112db565b60008484015250505050565b6000601f19601f8301169050919050565b600061131e826112bc565b61132881856112c7565b93506113388185602086016112d8565b61134181611302565b840191505092915050565b61135581611259565b82525050565b600060a08201905081810360008301526113758188611313565b905081810360208301526113898187611313565b9050818103604083015261139d8186611313565b905081810360608301526113b18185611313565b90506113c0608083018461134c565b9695505050505050565b600080fd5b600080fd5b600080fd5b60008083601f8401126113ef576113ee6113ca565b5b8235905067ffffffffffffffff81111561140c5761140b6113cf565b5b602083019150836001820283011115611428576114276113d4565b5b9250929050565b6000806000806000806000806080898b03121561144f5761144e61124f565b5b600089013567ffffffffffffffff81111561146d5761146c611254565b5b6114798b828c016113d9565b9850985050602089013567ffffffffffffffff81111561149c5761149b611254565b5b6114a88b828c016113d9565b9650965050604089013567ffffffffffffffff8111156114cb576114ca611254565b5b6114d78b828c016113d9565b9450945050606089013567ffffffffffffffff8111156114fa576114f9611254565b5b6115068b828c016113d9565b92509250509295985092959890939650565b600082825260208201905092915050565b6000611534826112bc565b61153e8185611518565b935061154e8185602086016112d8565b61155781611302565b840191505092915050565b61156b81611259565b82525050565b600060a083016000830151848203600086015261158e8282611529565b915050602083015184820360208601526115a88282611529565b915050604083015184820360408601526115c28282611529565b915050606083015184820360608601526115dc8282611529565b91505060808301516115f16080860182611562565b508091505092915050565b600060208201905081810360008301526116168184611571565b905092915050565b600061ffff82169050919050565b6116358161161e565b82525050565b6000602082019050611650600083018461162c565b92915050565b600060208201905061166b600083018461134c565b92915050565b60008115159050919050565b61168681611671565b82525050565b60006020820190506116a1600083018461167d565b92915050565b600081519050919050565b600082825260208201905092915050565b6000819050602082019050919050565b60006116df8383611562565b60208301905092915050565b6000602082019050919050565b6000611703826116a7565b61170d81856116b2565b9350611718836116c3565b8060005b8381101561174957815161173088826116d3565b975061173b836116eb565b92505060018101905061171c565b5085935050505092915050565b6000602082019050818103600083015261177081846116f8565b905092915050565b600080600080600080600080600060a08a8c03121561179a5761179961124f565b5b60006117a88c828d0161127a565b99505060208a013567ffffffffffffffff8111156117c9576117c8611254565b5b6117d58c828d016113d9565b985098505060408a013567ffffffffffffffff8111156117f8576117f7611254565b5b6118048c828d016113d9565b965096505060608a013567ffffffffffffffff81111561182757611826611254565b5b6118338c828d016113d9565b945094505060808a013567ffffffffffffffff81111561185657611855611254565b5b6118628c828d016113d9565b92509250509295985092959850929598565b600081519050919050565b600082825260208201905092915050565b6000819050602082019050919050565b600060a08301600083015184820360008601526118bd8282611529565b915050602083015184820360208601526118d78282611529565b915050604083015184820360408601526118f18282611529565b9150506060830151848203606086015261190b8282611529565b91505060808301516119206080860182611562565b508091505092915050565b600061193783836118a0565b905092915050565b6000602082019050919050565b600061195782611874565b611961818561187f565b93508360208202850161197385611890565b8060005b858110156119af5784840389528151611990858261192b565b945061199b8361193f565b925060208a01995050600181019050611977565b50829750879550505050505092915050565b600060208201905081810360008301526119db818461194c565b905092915050565b7f4e487b7100000000000000000000000000000000000000000000000000000000600052602260045260246000fd5b60006002820490506001821680611a2a57607f821691505b602082108103611a3d57611a3c6119e3565b5b50919050565b7f4e487b7100000000000000000000000000000000000000000000000000000000600052604160045260246000fd5b60008190508160005260206000209050919050565b60006020601f8301049050919050565b600082821b905092915050565b600060088302611ad47fffffffffffffffffffffffffffffffffffffffffffffffffffffffffffffffff82611a97565b611ade8683611a97565b95508019841693508086168417925050509392505050565b6000819050919050565b6000611b1b611b16611b1184611259565b611af6565b611259565b9050919050565b6000819050919050565b611b3583611b00565b611b49611b4182611b22565b848454611aa4565b825550505050565b600090565b611b5e611b51565b611b69818484611b2c565b505050565b5b81811015611b8d57611b82600082611b56565b600181019050611b6f565b5050565b601f821115611bd257611ba381611a72565b611bac84611a87565b81016020851015611bbb578190505b611bcf611bc785611a87565b830182611b6e565b50505b505050565b600082821c905092915050565b6000611bf560001984600802611bd7565b1980831691505092915050565b6000611c0e8383611be4565b9150826002028217905092915050565b611c27826112bc565b67ffffffffffffffff811115611c4057611c3f611a43565b5b611c4a8254611a12565b611c55828285611b91565b600060209050601f831160018114611c885760008415611c76578287015190505b611c808582611c02565b865550611ce8565b601f198416611c9686611a72565b60005b82811015611cbe57848901518255600182019150602085019450602081019050611c99565b86831015611cdb5784890151611cd7601f891682611be4565b8355505b6001600288020188555050505b505050505050565b7f4e487b7100000000000000000000000000000000000000000000000000000000600052601160045260246000fd5b6000611d2a8261161e565b9150611d358361161e565b9250828201905061ffff811115611d4f57611d4e611cf0565b5b92915050565b6000611d6082611259565b9150611d6b83611259565b9250828201905080821115611d8357611d82611cf0565b5b92915050565b600082905092915050565b611d9e8383611d89565b67ffffffffffffffff811115611db757611db6611a43565b5b611dc18254611a12565b611dcc828285611b91565b6000601f831160018114611dfb5760008415611de9578287013590505b611df38582611c02565b865550611e5b565b601f198416611e0986611a72565b60005b82811015611e3157848901358255600182019150602085019450602081019050611e0c565b86831015611e4e5784890135611e4a601f891682611be4565b8355505b6001600288020188555050505b50505050505050565b7f4e487b7100000000000000000000000000000000000000000000000000000000600052603260045260246000fd5b6000611e9e82611259565b91507fffffffffffffffffffffffffffffffffffffffffffffffffffffffffffffffff8203611ed057611ecf611cf0565b5b600182019050919050565b6000611ee68261161e565b9150611ef18361161e565b9250828203905061ffff811115611f0b57611f0a611cf0565b5b9291505056fea2646970667358221220e4648c3546bc16ed38ad0d0732848d11919d410984f237cedd6b84c6c7c6a9ad64736f6c63430008130033",
  "linkReferences": {},
  "deployedLinkReferences": {}
}